:1000000004308A00F62C00000A108A100A118207B8
:1000100028340C3401340634522349222029C31ACF
:10002000321900002D30840083130008031926289C
:100030000130F800F701F70B1B28F80B1A284A309B
:10004000F700F70B21282428800B18280800341803
:100050002B2808122C280816831608128312B418AD
:10006000332888123428881683168812831234198C
:100070003B2808133C280817831608138312B41969
:100080004328881344288817831688130000831296
:100090008815831688114C288312881183168811BD
:1000A00083120800B5018316081600308312081A5F
:1000B0000130B5048316881600308312881A013087
:1000C000F7000310F70D7708B50483160817003002
:1000D0008312081B0130F700F70DF70DFC30F70510
:1000E0007708B5048316881700308312881B013007
:1000F000F700F70DF70DF70DF830F7057708B504A1
:100100003508F8000800881083168810081688162D
:100110000817881783120815831608110000831228
:100120008815831688110000831252207808B400C5
:100130008811831688110000831288158316881190
:100140000000831252207808B300881183168811AA
:1001500008128812081388138312340EF700F03047
:10016000F70577083304F8007808B300B31FBA28FE
:1001700083168628B108031DBF288810C02888145C
:1001800083168810000083120811831608110000DE
:1001900083128811831688118312320EB3000F3038
:1001A000B3053308B400272032080F39B300B40078
:1001B000272008002E0BDE28AF01F2282E08023C73
:1001C000031DE5284030AF00F2282E08033C031D34
:1001D000EC281430AF00F2282E08043C031DF2284E
:1001E0005430AF0001302D02AF072F088038B00027
:1001F000B1013008B200832008002C080C3A031922
:100200000829063A03191029023A031916291B294D
:10021000B1010130B20083200230AD00122020294C
:100220000130AD000230AE00DA202029B1011030DB
:10023000B200832020290130B1002C08B2008320B5
:100240000800831608128812081388138811881072
:1002500008118312881083168810831208118316E0
:10026000081183128811831688110F308312AD0094
:1002700012200130A9002908033C031C4729033040
:10028000B40027200530AD001220A90A3B29023016
:10029000B4002720A9012908033C031C5829290878
:1002A0000420AA00B1012A08B2008320A90A4B2920
:1002B0000C30AC00FD208A110A120D2D8711A011FF
:1002C0002008831687008312091183160911031071
:1002D0008312440D7E39C7000830C600C6080319D2
:1002E0008E2947088039803C03197829071279291B
:1002F0000716201220088316870083128715A01185
:1003000020088316870003108312C70D8711A011E0
:100310002008831687008312C6036E290830C600A2
:10032000C6080319B02945088039803C03199A2969
:1003300007129B29071620122008831687008312B4
:100340008715A01120088316870003108312C50D9E
:100350008711A0112008831687008312C6039029F5
:1003600009158316091183128715A0112008831619
:10037000870083120800C6018711A0112008831688
:100380008700831209118316091103108312430D8C
:100390007E398038C5000830C400C4080319ED292F
:1003A00045088039803C0319D7290712D829071638
:1003B000201220088316870083128715A0112008B9
:1003C0008316870003108312C50D8711A011200822
:1003D000831687008312C403CD290830C400C408E3
:1003E00003190B2A8715A011200883168700031014
:1003F0008312C60DA01620088316870000308312D2
:10040000871A0130C6048711A011200883168700BF
:100410008312C403EF290915831609118312871566
:10042000A01120088316870083124608F8000800F0
:10043000C2014008C300BB217808C2004108FF3A4E
:100440004205C3004008C4004308C5005E210800FF
:10045000C2014008C300BB217808C2004208410421
:10046000C3004008C4004308C5005E210800091508
:1004700083160911831209148316091083120914B3
:10048000831609100000831209108316091000005A
:100490008312091483160910000001308312C4006E
:1004A0000F30C5005E2100002A30C4008D30C50029
:1004B0005E212B30C4003E30C5005E212D30C400CB
:1004C0001E30C5005E212C30C400C5015E211530F0
:1004D000C4004030C5005E211130C4003D30C5006D
:1004E0005E211430C0000330C10018221430C30054
:1004F000BB217808A9001430C0000330C1002822B5
:100500008A110A120E2D0B08A9008B1383160317EC
:100510008C170C140000000083120313A91B8B1707
:1005200003170C087F390319D72A0313A9000317EF
:100530000D080313AA0003170F080313AB002908C3
:10054000AC00FD202A0803178D0003132B080317A6
:100550008F0003130B08AC008B13831603178C1743
:100560000C140000000083120313AC1B8B1703173D
:100570000C0D0E0D7F390319D72A0313A900031799
:100580000D080313AA0003170F080313AB00290873
:10059000AC00FD202A0803178D0003132B08031756
:1005A0008F008D0A03198F0A0313832A031703137D
:1005B0008A110A12192D0230BA00BB01BC0132089F
:1005C0000E3A0319E72A023A0319EC2AF12A1230EB
:1005D000BB001030BC00F12A7730BB003030BC00CB
:1005E000F12A3B088038C0000230C4004008C50032
:1005F0005E210430C0008030C10018220A30C000E3
:100600008030C10028220130C400C5015E21BF0135
:1006100035083F0203181B2B3F0833078400831360
:10062000341883170008C0000930C4004008C50012
:100630005E21BF0A082B0130C4003208C5005E21CC
:1006400032080C3C031D292B0D30C0008030C10046
:100650002822FF30BF000430C300BB217808BE0051
:10066000BF03BF0803193A2B3E183A2B3E083C053E
:1006700003192B2B0D30C0008030C1001822BF0899
:100680000319B22B0630C300BB2178081B39031DA8
:10069000B02BBA013E083B0501390319512B01303B
:1006A000BA0032080C3C031DAF2B0A30C300BB213B
:1006B0007808BE000C30C300BB2178080739BD00A4
:1006C000BD080319742B3808840083133918831765
:1006D00001303E02F700F70DF70DF70DF830F70582
:1006E00077083D078000812B380884008313391870
:1006F00083173E0DF700F70DF70DF830F705770873
:100700008000BE08031D862B0130BE003E08103C51
:1007100003188C2B1030BE00BF013E083F020318A7
:10072000A82B3F083607F8003708FA000318FA0A22
:100730007808C0007A08C1000930C300BB21400816
:10074000840083134118831778088000BF0A8D2B1B
:100750003F08360784008313371883178001B22BB4
:100760000230BA003A08F80008002630AB002A0828
:10077000AD002908AC000D30C4000730C5005E2173
:100780002C08840083132D1883172B0880000C304D
:10079000B2002D08B4002C08B3000130B5002D08BC
:1007A000B7002C08B600B9012F30B800DB2278085A
:1007B000AE00AE08031DE02B2F08103C0319E22BFE
:1007C0000230AE002E08F800F808031DEB2B0130B4
:1007D000F800ED2BED2B0030F8008A110A121D2DC8
:1007E0002A08AD002908AC00B0010D30C400C501D5
:1007F0005E212C08840083132D188317933080000A
:1008000001302C07840083132D18831720308000BB
:100810000830C000C10018220C30B2002D08B4000E
:100820002C08B3000230B5002D08B7002C08B60024
:10083000B9013130B800DB227808AE00AE08031DE4
:100840003C2CAF012F08033C031C302C2F082C0735
:10085000840083132D1883170008B006AF0A222CDA
:1008600004302C07840083132D18831700083002EE
:1008700003193C2C0230AE002E08F8007808AB00BB
:1008800005302907840083132A1883178001AB08D9
:10089000031D4E2C0130F800502C502C0030F80075
:1008A0008A110A12242DAB1B652C0F30F7002A0E7B
:1008B000F7050A3077020318602C3030F707622CF6
:1008C0002B08F7077708AC00FD200F30AA050A3087
:1008D0002A0203186D2C30306F2CAB132B08AA079B
:1008E0002A08AC00FD208A110A12442D5030AA00BB
:1008F000AB01AF012A30AE000230B000B2012C30A3
:10090000B1000530C0000430C10018220A30C00018
:100910008030C1002822B301300833020318A32C11
:100920002F08FA002E08AE0A0319AF0A84008313B9
:100930007A1883170008B5000930C4003508C500CF
:100940005E21B30A8C2C0130C4000330C5005E2147
:10095000FF30B3000530C300BB217808B400B303F7
:10096000B3080319B52C341DAA2C3108F80032083D
:10097000FA003108B5003208B6002230C300BB21AE
:1009800035088400831336188317780880000130F7
:100990003107F8003208FA000318FA0A7808B5009F
:1009A0007A08B6002130C300BB21350884008313C8
:1009B00036188317780880000830C0008030C100E6
:1009C00018220C30B200B4012A30B3000430B50054
:1009D000B7012A30B600B9012930B800DB2208304F
:1009E000C000C10018228A110A12472D03081F39BE
:1009F0008300FF30A000831603170908C03989005F
:100A000003131F129F1200300317880083128701FF
:100A100088018901831303132129372A0130AD008E
:100A2000AE00DA200C3003178D0000308F00031366
:100A3000832AAA012830A900B52BF8080319472DED
:100A4000AA012130A900F02BF8080319462D013026
:100A5000AD000230AE00DA204930AC00FD20443059
:100A6000AC00FD203A30AC00FD20A7012708043C73
:100A7000031C462D21302707840083130008A9009A
:100A8000AA005730AB00532CA70A362D762C192D0F
:020A9000630001
:04400E00E12CFF3F63
:00000001FF
;PIC16F887
;CRC=249F  CREATED="18-May-16 22:06"
