:1000000000308A00A82B0000FF00030E8301A1002E
:100010000A08A0008A010408A2007708A300780853
:10002000A4007908A5007A08A6007B08A70083131E
:1000300083128B1D1D280B183028220884002308EA
:10004000F7002408F8002508F9002608FA00270818
:10005000FB0020088A00210E8300FF0E7F0E09009E
:100060008A110A126C280A108A100A1182074C346D
:10007000453420344D3449344E34483420344834E7
:10008000413400340A108A100A1182075434433470
:10009000323430343534323400340A108A100A11C4
:1000A0008207543469346D34653400340A108A1080
:1000B0000A118207443461347434653400340A1000
:1000C0008A100A1182073A3400340A108A100A1181
:1000D0008207203420340034831606168312061A51
:1000E0007B28A808031D78280130A800A9007A28D9
:1000F000A801A9016129831686168312861A882809
:10010000A90A2908073C031D87280130A900612995
:10011000831606178312061BF828280BF7280130D0
:100120002902FB3E0318F728053E6529AC0A2C0876
:10013000183C0319AC01F728AB0A2B083C3C031907
:10014000AB01F728AD0A2D081E3C0319A928003081
:10015000AA280130B7002E08043C0319B12800304A
:10016000B22801303705031DC1282E08063C0319AB
:10017000C1282E08093C0319C1282E080B3C031D79
:10018000C4280130AD00E8282E08023C031DD32806
:100190002F080339031DD3282D081E3C031DD32827
:1001A0000130AD00E8282E08023C031DE2282F088C
:1001B00003390319E2282D081D3C031DE2280130F4
:1001C000AD00E8282D08203C031DE8280130AD00D3
:1001D000F728AE0A2E080D3C031DF0280130AE00B2
:1001E000F728AF0A2F08643C0319AF01F7286129EB
:1001F000831686178312861B602901302902FB3E75
:1002000003185F29053E6E29AC08031D0929183023
:10021000AC00AC035F29AB08031D10293C30AB00D8
:10022000AB035F29AD03AD08031918290030192964
:100230000130B7002E08043C031920290030212981
:1002400001303705031D30292E08063C03193029DB
:100250002E08093C031930292E080B3C031D3329B5
:100260001E30AD0054292E08023C031D41292F08E1
:100270000339031D4129AD08031D41291D30AD007F
:1002800054292E08023C031D4F292F080339031956
:100290004F29AD08031D4F291C30AD005429AD086E
:1002A000031D54291F30AD005F29AE0B59290C30B6
:1002B000AE005F29AF0B5E296330AF005F29612973
:1002C00061290B108A110A121D280A148A100A11BA
:1002D000820796289C28A228E928F1280A148A1067
:1002E0000A11820704290B29122955295A29341881
:1002F0007B2908127C290816831608128312B41869
:100300008329881284298816831688128312341947
:100310008B2908138C290817831608138312B41924
:10032000932988139429881783168813831200341D
:1003300031308400831300080319AC290130F80020
:10034000F701F70BA129F80BA0294A30F700F70BAA
:10035000A729AA29800B9E290034831688118312AD
:100360008815B22900008316881183128811313054
:10037000F700F70BB929BC290034B00E3008B400DF
:100380007721AD21B00E3008B4007721AD21300BBC
:10039000CC290230B10098210034B4017721143007
:1003A000B1009821831688108312881083160811D3
:1003B000831208110330B4007721AD21AD21AD21A6
:1003C0000230B4007721AD212C30B000BD210C30BB
:1003D000B000BD210630B000BD210130B000BD210C
:1003E0008A110A12BC2BB00E30080838B100B400D4
:1003F0007721AD21B00E3008B4007721AD21003453
:100400008316881083128814B30E3308B400772142
:10041000AD21B30E3308B4007721AD2183168810C7
:100420008312881000340830F8000000061083168C
:10043000061000008312B30D8610031C222A8316B7
:10044000861483120318272A8316861083128316B4
:1004500006148312061C2A2AF80B152A000006101F
:100460008316061000008614000000000614831294
:10047000061C382AF8010000861878140610831626
:10048000061083128610831686108312003483169A
:10049000861400000614000083128610831686104E
:1004A00000008312061083160610D0308312B300AA
:1004B00013223008B300132283168610000006149E
:1004C0008312061C612A0000652A00008316861428
:1004D00000008614000006140000831286108316A4
:1004E000861000008312061083160610D130831286
:1004F000B3001322F7010830B3007708B400831665
:100500008614000006148312061C842A861803141D
:10051000861C0310F80D00008316061083120610C7
:10052000B30B7F2A831686140000831286103408CA
:1005300003199D2A83168610831200008316061461
:100540008312061CA12A0000061083160610000064
:10055000831286108316861078088312B1008316E2
:100560008610000006148312061CB42A0000B82A64
:10057000000083168614000083123108F80000344E
:10058000310EB2000F30B20531080F39B300320816
:10059000B5000A30B600F701F80135080310361827
:1005A000F707F70CF80CB618F707F70CF80C361924
:1005B000F707F70CF80CB619F707F70CF80C361A12
:1005C000F707F70CF80CB61AF707F70CF80C361B00
:1005D000F707F70CF80CB61BF707F70CF80C330805
:1005E0007807B4003408F80000348316861400003D
:1005F00006140000831286108316861000008312F2
:10060000061083160610D0308312B300132231086F
:10061000B30013223208B3001322831686100000A1
:1006200006148312061C122B0000162B00008316E2
:1006300086140000831200343508F80134020318D0
:10064000242B3408F700302BF7010830B600B40D26
:10065000F70D350877020318F700F80DB60B272BB6
:1006600000343008B4000A30B5001C237808B1000B
:100670003008B4000A30B5001C237708B200310EF0
:10068000F700F030F70577083207B3003308F800B9
:100690000034B101B201F5220530B10098212B08D8
:1006A000B00031237808B0000130B1007808B20002
:1006B000F5220530B10098212C08B00031237808CC
:1006C000B0000230B1007808B200F5220530B10068
:1006D00098212D08B00031237808B0000430B10013
:1006E0007808B200F5220530B10098212E08B0003C
:1006F00031237808B0000530B1007808B200F52247
:100700000530B10098212F08B00031237808B000DF
:100710000630B1007808B200F5220530B10098210A
:100720008A110A12492C3008B4000A30B5001C2383
:1007300030307807B200B30000223008B4000A302D
:10074000B5001C2330307707B200B300002200341C
:10075000840183131F30830583161F149F141F15F4
:100760009F1107309C008312A801A90103178B1564
:10077000C03003138B04CD298430B000F321B001C5
:100780003008332000380319C92BB00AB300002207
:10079000C02BC530B000F321B00130084220003832
:1007A0000319D62BB00AB3000022CD2BC830B100FC
:1007B00098210130B000BD218030B000F321B0019C
:1007C00030084D2000380319E92BB00AB30000228D
:1007D000E02BC030B000F321B001300856200038C3
:1007E0000319F62BB00AB3000022ED2BA808031D55
:1007F000462CB00147227808B000B100C02278082A
:10080000AA002130F700F70B032C0130B00047227B
:100810007808B000B100C0227808AB002130F700A2
:10082000F70B102C0230B00047227808B000B1005E
:10083000C0227808AC002130F700F70B1D2C0430E3
:10084000B00047227808B000B100C0227808AD009F
:100850002130F700F70B2A2C0530B000472278082A
:10086000B000B100C0227808AE002130F700F70BCD
:10087000372C0630B00047227808B000B100C02203
:100880007808AF002130F700F70B442C280B492CD7
:10089000492B8530B000F3212C08B0009323B00120
:1008A00030085F2000380319592CB00AB300002229
:1008B000502C2B08B0009323B00130085F20003883
:1008C0000319662CB00AB30000225D2C2A08B00080
:1008D0009323C530B000F3212D08B0009323B0015D
:1008E00030085F2000380319792CB00AB3000022C9
:1008F000702C2E08B0009323B00130085F20003820
:100900000319862CB00AB30000227D2C2F08B000FA
:10091000932301302902FB3E0318E52C053EE72C0A
:100920008530B000F321B00130086520003803198C
:100930009D2CB00AB3000022942C1E30B1009821E7
:10094000E52C8830B000F321B00130086520003874
:100950000319AE2CB00AB3000022A52C1E30B10042
:100960009821E52CC530B000F321B0013008652096
:1009700000380319BF2CB00AB3000022B62C1E3079
:10098000B1009821E52CC830B000F321B001300847
:10099000652000380319D02CB00AB3000022C72C00
:1009A0001E30B1009821E52CCB30B000F321B0010E
:1009B0003008652000380319E12CB00AB30000228A
:1009C000D82C1E30B1009821E52CF62B63000A10BC
:1009D0008A100A158207902CA12CB22CC32CD42C7F
:02400E003A3F37
:00000001FF
;PIC16F877A
