:1000000000308A00AF2B00000A108A100A11820704
:1000100028340C34013406340A108A100A1182077D
:10002000543449344D3445343A3420342534303452
:10003000323475343A3425343034323475343A3409
:1000400025343034323475340034A93084008313BD
:100050000008031939280130F800F701F70B2E28A2
:10006000F80B2D284A30F700F70B34283728800B7F
:100070002B2800348316300EF039F7000F3083122E
:10008000080577048800000008144628081000348A
:100090008810F030831688008312081500000814B9
:1000A00000000808080E0F398316B00083120810EC
:1000B0000000081400000808080E0F398316AF006E
:1000C00083120810003083168800300EF700F030DD
:1000D000F70577082F04F8007808AF00AF1F7228E3
:1000E000831249282D1877288312881083162D1C17
:1000F0007C288312881483160000831208110000E4
:10010000081083162E0EAF000F30AF052F08B00079
:1001100083123A2083162E080F39AF00B0008312E5
:100120003A200034003083168800831288100811AA
:1001300008100F308316A900831225200130831682
:10014000A4002408033C031CB1280330B000831230
:100150003A2005308316A900831225208316A40AAD
:10016000A1280230B00083123A208316A40124088B
:10017000033C031CC8282408831204208316A5000E
:10018000AD012508AE00831248208316A40AB728C3
:1001900083128A110A123B2C0830F80000008711E4
:1001A000A0112008831687000000AE0D83120712ED
:1001B000031CE0282016200883168700E4288312F9
:1001C000201220088316870000008312A015200843
:1001D000831687008312871DEB28F80BCE280000BA
:1001E0008711A011200883168700000083122016B3
:1001F000200883168700000000008312A015200845
:10020000831687008312871D0329F8010000071A4F
:1002100078148711A0112008831687008312071213
:1002200020122008831687008312003483162B08BF
:10023000AC00AD012C08093C031823290A30AC029C
:100240001030AD0726292C08AD0727291A292D08BB
:10025000F800831200340B138B138B1B2C2983168D
:10026000AA133F30A80583122016200883168700A2
:1002700000008312A0152008831687000000831257
:1002800007122012200883168700000083128711AE
:10029000A011200883168700D030AE008312CC2036
:1002A0008316AE018312CC2083162A08AB0083127A
:1002B000162178088316AB00AE008312CC2083167B
:1002C0002908AB008312162178088316AB00AE0014
:1002D0008312CC2083162808AB00831216217808DD
:1002E0008316AB00AE008312CC2083162708AB0028
:1002F0008312162178088316AB00AE008312CC203F
:1003000083162408AB008312162178088316AB00ED
:10031000AE008312CC2083162508AB008312162171
:1003200078088316AB00AE008312CC208316260813
:10033000AB008312162178088316AB00AE0083123F
:10034000CC20201220088316870000008312A015FD
:100350002008831687008312871DAC290000B0296E
:10036000000020162008831687000000C03083128A
:100370008B048A110A124A2C08308316AF007708C2
:10038000B000831220162008831687000000831215
:10039000A0152008831687008312871DCD29071A10
:1003A0000314071E0310F80D0000A0112008831687
:1003B0008700831287118316AF0BC1298312201681
:1003C0002008831687000000831207128316300866
:1003D0000319EF29831220122008831687000000DA
:1003E0008312A0152008831687008312871DF62923
:1003F00000008711A01120088316870000008312D7
:1004000007122012200883168700831200348316F7
:100410003008B1000310B10C7830B105310CF70091
:10042000F70C3F30F70577083107B20030080F3975
:100430003207F800831200340B138B138B1B1D2A19
:10044000201620088316870000008312A0152008BC
:1004500083168700000083120712201220088316DB
:100460008700000083128711A011200883168700DF
:10047000D030AE008312CC2003308316AE0083123E
:10048000CC20201620088316870000008312A015B8
:1004900020088316870000008312871D4D2A07124B
:1004A0002012200883168700000083128711A011F4
:1004B000200883168700D130AE008312CC20013093
:1004C000F700BC2178087F398316AB00B000831297
:1004D000072278088316A9000130F7008312BC2197
:1004E00078083F398316AB00B000831207227808E2
:1004F0008316A6000130F7008312BC2178081F394B
:100500008316AB00B0008312072278088316A70079
:10051000F7018312BC2178088316AA00B000831269
:10052000072278088316A800831220122008831659
:10053000870000008312A01520088316870083120D
:10054000871DA02A0000A42A000020162008831678
:1005500087000000C03083128B0483162908AA008C
:100560000B30AB00F701F8012A0803102B18F7072E
:10057000F70CF80CAB18F707F70CF80C2B19F7076A
:10058000F70CF80CAB19F707F70CF80C2B1AF70758
:10059000F70CF80CAB1AF707F70CF80C2B1BF70746
:1005A000F70CF80CAB1BF707F70CF80C7808213E9A
:1005B000F800FA010318FA0A7808AA007A08AB00D2
:1005C00025088312EF00831624088312EE00831699
:1005D0002A08840083132B188317003000040319A2
:1005E000102BAD010408AC002D10831B2D14000846
:1005F000AE0083126E08840083136F18831783166E
:100600002E088000840A80018312EE0A0319EF0A83
:1006100083162C08840083132D188317840AED2A6F
:1006200083128A110A12562D83162A0B182B1B2BA4
:100630004030AB001C2BAB0101302902AB072B086B
:100640008038AC00AD012C08AE0083124820003485
:10065000831628080C3A83120319352B063A03191E
:10066000412B023A0319492B502B8316AD0101305F
:10067000AE008312482002308316A9008312252081
:10068000582B01308316A9000230AA0083121423CC
:10069000582B8316AD011030AE0083124820582B22
:1006A00001308316AD002808AE0083124820582B75
:1006B000003483162908F80128020318622B280841
:1006C000F7006E2BF7010830AA00A80DF70D2908D6
:1006D00077020318F700F80DAA0B652B831200347C
:1006E000780883162608A8006430A90083125923CD
:1006F00077088316A60078083030031D862BA71CC8
:100700008F2BA7198F2B271A2030892BA71127127F
:100710002714F8077808A8008312282383162608D0
:10072000A8000A30A9008312592377088316A6006F
:1007300078083030031DA22BA719A82B271CA82B43
:10074000271A2030F8077808A80083122823831678
:100750003030A6072608A80083122823003484011D
:1007600083131F30830583161F149F141F159F11B9
:1007700007309C00FF308312A0004C30A100753080
:10078000A2006E30A3006530A4007330A500A6015E
:10079000A701A801A901AA01AB014D30AC0061304D
:1007A000AD007230AE007430AF006530B000733011
:1007B000B100B201B301B401B501B6014D30B700CB
:1007C0006930B800E930B9007230BA006330BB005C
:1007D0006F30BC006C30BD006530BE007330BF00B0
:1007E000C001C1014A30C2007530C3006530C40089
:1007F0007630C5006530C6007330C700C801C90136
:10080000CA01CB01CC015630CD006930CE00653035
:10081000CF007230D0006E30D1006530D20073301E
:10082000D300D401D501D601D7015330D800E1302F
:10083000D9006230DA006130DB006430DC006F30F8
:10084000DD00DE01DF01E001E101E2014430E3000F
:100850006F30E4006D30E5006930E6006E30E7008F
:100860006730E8006F30E900EA01EB01EC01ED01CF
:10087000EE01EF01922804308316A4000330A50096
:100880000F30A600A7010730A8001B30A900AA015D
:1008900083122B290B138B138B1B4B2C2016200838
:1008A0008316870000008312A01520088316870096
:1008B0000000831207122012200883168700000010
:1008C00083128711A011200883168700D030AE0054
:1008D0008312CC2003308316AE008312CC20201666
:1008E00020088316870000008312A01520088316B5
:1008F000870000008312871D7B2C0712201220081E
:1009000083168700000083128711A0112008831628
:100910008700D130AE008312CC200130F700BC211B
:1009200078087F398316AB00B0008312072278085D
:10093000F6000130F700BC2178083F398316AB0080
:10094000B000831207227808F3000130F700BC21C1
:1009500078081F398316AB00B0008312072278088D
:10096000F400F701BC2178088316AA00B0008312B6
:1009700007227808F500201220088316870000005F
:100980008312A0152008831687008312871DC62CAA
:100990000000CA2C000020162008831687000000E3
:1009A000C03083128B040B138B138B1BD42C20169B
:1009B00020088316870000008312A01520088316E4
:1009C0008700000083120712201220088316870078
:1009D000000083128711A011200883168700D030F1
:1009E000AE008312CC208316AE018312CC202016D9
:1009F00020088316870000008312A01520088316A4
:100A0000870000008312871D032D07122012200883
:100A100083168700000083128711A0112008831617
:100A20008700D130AE008312CC200130F700BC210A
:100A300078087F398316A500B00083120722780852
:100A4000F0000130F700BC2178087F398316A5003B
:100A5000B000831207227808F100F701BC21780862
:100A60003F398316A500B000831207227808F200F0
:100A7000201220088316870000008312A01520088A
:100A8000831687008312871D432D0000472D000029
:100A900020162008831687000000C03083128B04C4
:100AA0008316A501A030A40083121C2A01308316EE
:100AB000A900AA0083121423A030840083130030FD
:100AC00000040319772D8316A5010408A40025103E
:100AD000831B25140008A8008312282383162408EA
:100AE0008400831325188317840A83125F2D203016
:100AF0008316A8008312282373088316A6000130EA
:100B0000A700831270232F308316A8008312282396
:100B100074088316A6000130A700831270232F30BB
:100B20008316A8008312282332308316A80083126C
:100B3000282330308316A8008312282375088316D3
:100B4000A6000130A7008312702302308316A9008B
:100B5000AA00831214238316A401240883120C20F4
:100B60008316A40AF700A8008312282306308316F0
:100B70002402031DAD2D7208A6000130A7008312C8
:100B800070233A308316A800831228237108831635
:100B9000A6000130A700831270233A308316A80004
:100BA0008312282370088316A6000130A700831241
:100BB0007023C8308316A900831225204A2C6300B5
:02400E00713F00
:00000001FF
;PIC16F877A
