:1000000075B0FF7580FF7590001200141200241265
:10001000005580F57590FF7580FF75B0001200C225
:100020001200C2227590FF75B0007580FF1200C2E9
:1000300075B0FF7580007590001200C27590FF7555
:10004000B0007580FF1200C275B0FF75800075901A
:10005000001200C22275B0FF75900075800012007A
:10006000C27580FF75B0007590801200C27580FF68
:1000700075B0007590C01200C27580FF75B0007534
:1000800090E01200C27580FF75B0007590F012000C
:10009000C27580FF75B0007590F81200C27580FFC0
:1000A00075B0007590FC1200C27580FF75B00075C8
:1000B00090FE1200C27580FF75B0007590FF1200AF
:1000C000C222790A758901758C3C758AB0D28C3050
:0900D0008DFDC28DC28CD9EC2219
:00000001FF
