:1000000012000B12002A12007980F575B00075906D
:10001000001202EA75B0FF1202EA75B00075900096
:100020001202EA75B0FF1202EA2275B0FF1202EA6C
:1000300075B00075907F1202EA75B00075903F129E
:1000400002EA75B00075901F1202EA75B000759053
:100050000F1202EA75900075B0071202EA75B0003F
:100060007590031202EA75B0007590011202EA75EC
:10007000B0007590001202EA2275B0FF1202EA7514
:10008000B07F75907F1202EA75B07F75903F1202C3
:10009000EA75B07F75901F1202EA75B07F75900FF8
:1000A0001202EA75B07F7590071202EA75B07F758B
:1000B00090031202EA75B07F7590011202EA75B0E2
:1000C0007F7590001202EA75B0FF1202EA75B0BFA8
:1000D00075907F1202EA75B0BF75903F1202EA7503
:1000E000B0BF75901F1202EA75B0BF75900F120273
:1000F000EA75B0BF7590071202EA75B0BF7590033C
:100100001202EA75B0BF7590011202EA75B0BF75B0
:1001100090001202EA75B0FF1202EA75B0DF759026
:100120007F1202EA75B0DF75903F1202EA75B0DF08
:1001300075901F1202EA75B0DF75900F1202EA7512
:10014000B0DF7590071202EA75B0DF7590031202F6
:10015000EA75B0DF7590011202EA75B0DF759000A4
:100160001202EA75B0FF1202EA75B0EF75907F12C5
:1001700002EA75B0EF75903F1202EA75B0EF759024
:100180001F1202EA75B0EF75900F1202EA75B0EF18
:100190007590071202EA75B0EF7590031202EA75C6
:1001A000B0EF7590011202EA75B0EF75900012027F
:1001B000EA75B0FF1202EA75B0F775907F1202EA95
:1001C00075B0F775903F1202EA75B0F775901F127F
:1001D00002EA75B0F775900F1202EA75B0F77590E4
:1001E000071202EA75B0F77590031202EA75B0F7CC
:1001F0007590011202EA75B0F77590001202EA7567
:10020000B0FF1202EA75B0FB75907F1202EA75B07A
:10021000FB75903F1202EA75B0FB75901F1202EA5F
:1002200075B0FB75900F1202EA75B0FB759007125E
:1002300002EA75B0FB7590031202EA75B0FB759087
:10024000011202EA75B0FB7590001202EA75B0FF68
:100250001202EA75B0FD75907F1202EA75B0FD7565
:10026000903F1202EA75B0FD75901F1202EA75B058
:10027000FD75900F1202EA75B0FD7590071202EA43
:1002800075B0FD7590031202EA75B0FD759001120C
:1002900002EA75B0FD7590001202EA75B0FF120215
:1002A000EA75B0FE75907F1202EA75B0FE75903F58
:1002B0001202EA75B0FE75901F1202EA75B0FE7563
:1002C000900F1202EA75B0FE7590071202EA75B03F
:1002D000FE7590031202EA75B0FE7590011202EAF3
:1002E00075B0FE7590001202EA22790F75890175CA
:1002F0008C3C758AB0D28C308DFDC28CC28DD9EC0D
:0103000022DA
:00000001FF
