:100A2500FEFDFBF7EFDFBF7F00007E81817E0000CA
:100A350000002141FF010100000067898973000062
:100A45000000C291B1CE00000000182848FF080040
:100A55000000F29191CE000000007E89914E0000C9
:100A65000000C08F90E0000000006E91916E0000C4
:080A750000007289917E00006F
:100A7D00AF09740E2FF8E6F5B0E50B75F008A42F4D
:100A8D002416F8E6F590EB75F008A425092416F860
:070A9D00E6F5A07F017E00D9
:100AA400EF1FAC0670011E4C6014758901758CFC37
:0F0AB400758A17D28C308DFDC28DC28C80E222E4
:10080000780E7C007D007BFF7A0A79257E007F08C8
:100810001209FF78167C007D007BFF7A0A792D7E15
:10082000007F501209FF7580B67B027A00750A00BE
:10083000750B09E4F50CF50DE4F508F509120A7DD0
:10084000EB4A7014E50B6406450A700CC281C28540
:10085000D282D284D280D286EB4A7009E50B450A57
:10086000700375806B0509E50970020508C39408DB
:10087000E5086480948040C5050DE50D7002050C07
:10088000C3943CE50C6480948040ADE50B150B707F
:1008900002150AC3E50A648094805097EB1B70012F
:1008A0001AEBF47002EAF470847A007B02C3EA6403
:1008B0008094805003020829750A00750B09E4F53D
:1008C0000CF50DE4F508F509120A7DEB4A7014E504
:1008D0000B6406450A700CC281C285D282D284D2D2
:1008E00080D286EB4A7009E50B450A70037580B625
:1008F0000509E50970020508C39408E508648094B9
:100900008040C5050DE50D7002050CC3943CE50C57
:100910006480948040ADE50B150B7002150AC3E5A9
:0F0920000A648094805097EB1B70011A0208AD97
:03000000020AC32E
:0C0AC300787FE4F6D8FD7581650208001C
:10092F00E709F608DFFA8046E709F208DFFA803EAA
:10093F0088828C83E709F0A3DFFA8032E309F60897
:10094F00DFFA8078E309F208DFFA807088828C83FF
:10095F00E309F0A3DFFA806489828A83E0A3F608B3
:10096F00DFFA805889828A83E0A3F208DFFA804C8D
:10097F0080D280FA80C680D4806980F28033801064
:10098F0080A680EA809A80A880DA80E280CA8033CD
:10099F0089828A83ECFAE493A3C8C582C8CCC58345
:1009AF00CCF0A3C8C582C8CCC583CCDFE9DEE78015
:1009BF000D89828A83E493A3F608DFF9ECFAA9F094
:1009CF00EDFB2289828A83ECFAE0A3C8C582C8CCEA
:1009DF00C583CCF0A3C8C582C8CCC583CCDFEADE03
:1009EF00E880DB89828A83E493A3F208DFF980CC65
:1009FF0088F0EF60010E4E60C388F0ED2402B4045E
:100A0F000050B9F582EB2402B4040050AF23234504
:060A1F00822390097F73A1
:00000001FF
