:1000000000308A006E2D00000A108A100A110B3E83
:1000100003188A0A820000340034003400340034AB
:10002000003400345F3400340034003403340034CE
:100030000334003414343E3414343E341434243441
:100040002A347F342A341234433433340834663447
:100050006134363449345534223450340034053454
:1000600003340034003400341C342234413400346E
:100070000034413422341C340034143408343E3407
:1000800008341434083408343E3408340834003456
:100090005034303400340034083408340834083420
:1000A00008340034603460340034003420341034B8
:1000B0000834043402343E345134493445343E3437
:1000C0000034043402347F34003442346134513417
:1000D00049344634223441344934493436341834AE
:1000E000143412347F3410342734453445344534C5
:1000F00039343E34493449344934323401340134DA
:100100007134093407343634493449344934363487
:1001100026344934493449343E3400343634363494
:10012000003400340034563436340034003408349B
:100130001434223441340034143414341434143458
:100140001434003441342234143408340234013479
:100150005134093406343E344134593455345E3414
:100160007E340934093409347E347F3449344934C7
:10017000493436343E3441344134413422347F34BE
:100180004134413441343E347F3449344934493474
:1001900041347F3409340934093401343E34413464
:1001A000413449343A347F340834083408347F34D5
:1001B000003441347F3441340034303440344034EE
:1001C00040343F347F3408341434223441347F3493
:1001D00040344034403440347F3402340C340234F0
:1001E0007F347F340234043408347F343E34413465
:1001F000413441343E347F340934093409340634FF
:100200001E342134213421345E347F3409340934DE
:10021000093476340A148A100A11820726344934C4
:10022000493449343234013401347F3401340134E7
:100230003F344034403440343F341F342034403461
:1002400020341F347F342034103420347F34413440
:1002500022341C34223441340734083470340834D6
:1002600007346134513449344534433400347F34E5
:10027000413400340034023404340834103420345F
:100280000034003441347F34003404340234013407
:100290000234043440344034403440344034003478
:1002A000013402340434003420345434543454348B
:1002B00078347F3444344434443438343834443427
:1002C00044344434443438344434443444347F343F
:1002D00038345434543454341834043404347E34AC
:1002E0000534053408345434543454343C347F34A5
:1002F0000834043404347834003444347D344034D5
:1003000000342034403444343D3400347F341034DD
:10031000283444340034003441347F3440340034D1
:100320007C3404347834043478347C340834043431
:1003300004347834383444344434443438347C34E9
:100340001434143414340834083414341434143485
:100350007C3400347C340834043404344834543459
:10036000543454342034043404343F344434443456
:100370003C344034403420347C341C342034403409
:1003800020341C343C344034303440343C34443425
:1003900028341034283444340C345034503450341D
:1003A0003C344434643454344C34443400340834DD
:1003B000363441344134003400347F340034003466
:1003C00041344134363408340034023401340234C8
:1003D00004340234DD080319F229831686108312CF
:1003E0008614F62983160610831206148316061245
:1003F000831206128316880183125E0888000000AB
:100400008316861283128616052A062A0000831692
:100410008612831286128316061083120610831624
:100420008610831286100034F701F8014B08031080
:100430004C18F707F70CF80CCC18F707F70CF80C6A
:100440004C19F707F70CF80CCC19F707F70CF80C58
:100450004C1AF707F70CF80CCC1AF707F70CF80C46
:100460004C1BF707F70CF80CCC1BF707F70CF80C34
:100470000034201020088316870083120714831687
:1004800086128312861283160610831206108316B4
:100490008610831286108316061183120611DD0161
:1004A000C030DE00EA210130DD00C030DE00EA218C
:1004B000DD014030DE00EA210130DD004030DE00A9
:1004C000EA21DD01B830DE00EA210130DD00B8307C
:1004D000DE00EA21390B762ADD013F30DE00EA2119
:1004E0000130DD003F30DE00EA217F2ADD013E30B1
:1004F000DE00EA210130DD003E30DE00EA21BA01F3
:10050000BB013B08073C031CC52A83160611831256
:100510000611DD014030DE00EA210130DD0040300F
:10052000DE00EA213B08B838BD00DD013D08DE00F1
:10053000EA213B08B838BD000130DD003D08DE008F
:10054000EA218316061183120615BC013C083F3CC4
:10055000031CC32AFF30CB003A08CC0014227808D1
:10056000BD00DD017808DE00EA21FF30CB003A084B
:10057000CC0014227808BD000130DD007808DE00D0
:10058000EA21BC0AA62ABB0A812A8A110A12A82DCE
:10059000FF3083168800061283120616DA08031944
:1005A000D62A8316861083128614DA2A831606103A
:1005B0008312061400008316861283128616E02A20
:1005C000E12AFF308316880083120808DB008316B7
:1005D0008612831286128316061083120610831663
:1005E0008610831286105B08F800003458105408F7
:1005F0003F3C0318FE2A4030D402581483160611DB
:1006000083120611D4135417003058180130D90042
:10061000DD005408DE00EA21003058180130D9000E
:10062000550CF700F70CF70C1F30F7057708BF39AA
:10063000B838DC005908DD005C08DE00EA218316CA
:10064000061183120615003058180130D900DA005F
:10065000C822003058180130D900DA00C8227808C2
:10066000D700560B432B55080739D9000130F70046
:100670005908F8000319402B0310F70DF80B3C2B19
:100680007708D704532B55080739D9000130F700F4
:100690005908F8000319502B0310F70DF80B4C2BD9
:1006A0007708FF3AD705831606118312061100302A
:1006B00058180130D900DD005408DE00EA21831605
:1006C000061183120615003058180130D900DD00DC
:1006D0005708DE00EA2100343C08FA003B08840099
:1006E00083137A18831780080319412C3C08FA00F9
:1006F0003B08840083137A1883170008523C031CBC
:100700009F2B3C08FA003B08840083137A18831758
:1007100020300002CA00CB000530CC00142278083B
:10072000CB00F9000530F8004330840083137908CA
:1007300004208000F90A840AF80B972BCD2B3C0883
:10074000FA003B08840083137A18831700087E3C64
:10075000031CC82B3C08FA003B08840083137A185A
:10076000831753300002CA00CB000530CC0014229E
:100770007808CB00F9000530F8004330840083137B
:1007800079080A218000F90A840AF80BC02BCD2BC6
:10079000C301C401C501C601C7013C08FA003B08FA
:1007A000840083137A18831700080A3A0319DC2B94
:1007B000073A0319E52BE72B0730CB003D08CC00A7
:1007C000142201307807BA073C2CB9013C2C0530C3
:1007D000CB003D08CC001422780839077F3C031871
:1007E000FA2BB9010730CB003D08CC0014220130B0
:1007F0007807BA07BF013F08043C031C3C2CC0012A
:100800004008063C031C382C43303F078400831308
:100810000008C800F7004008F8000319132C031063
:10082000F70CF80B0F2C771C362CC1013D08410248
:100830000318362CC2013D0842020318342C42082A
:100840003907C8004008CB003D08CC0014227808C6
:100850003A074107CA004808D4004A08D5003E08B4
:10086000D600F622C20A1B2CC10A162CC00A002C84
:10087000BF0A3D08B907FB2BBB0A0319BC0AB90A1A
:100880006C2B00340130CD00CE00D3014408460269
:10089000D4005408D41F4E2C5408003CFA01CB005D
:1008A0007A08CC0045084702D4005408D41F5A2CBB
:1008B0005408003CFA01C9007A08CA0044084602FC
:1008C0000318642CFF30CD004508470203186A2C3A
:1008D000FF30CE004A084C02031CB62C031D742CBA
:1008E00049084B02031CB62C0310C90DCA0D4B0856
:1008F0004902F7004A08FA004C08031C4C0FFA02A0
:100900007708CF007A08D0004B084F02D10050087A
:10091000D2004C08031C4C0FD202CC08031D942CAF
:1009200053084B02031CB52C4408D4004508D500DD
:100930004808D600F622D01FA72C4908CF074A083E
:1009400003184A0FD0074D084407C400B32C5108C0
:10095000CF0752080318520FD0074D084407C400B0
:100960004E084507C500D30A8D2CF72C0310CB0D7C
:10097000CC0D49084B02F7004C08FA004A08031C4A
:100980004A0FFA027708CF007A08D00049084F02D0
:10099000D1005008D2004A08031C4A0FD202CA08EC
:1009A000031DD62C53084902031CF72C4408D4001D
:1009B0004508D5004808D600F622D01FE92C4B0880
:1009C000CF074C0803184C0FD0074E084507C50049
:1009D000F52C5108CF0752080318520FD0074D08C5
:1009E0004407C4004E084507C500D30ACF2C003485
:1009F000BD0803192B2D3B0839020318042D3908B3
:100A0000C0003B08C100082D3B08C0003908C100E8
:100A10003C083A020318112D3A08C2003C08C300F2
:100A2000152D3C08C2003A08C30040084102031CCF
:100A30002A2D4208BF003F084302031C282D40080E
:100A4000D4003F08D5003E08D600F622BF0A1B2D71
:100A5000C00A152D572D3908C4003A08C5003B08B7
:100A6000C6003A08C7003E08C80042243908C4003E
:100A70003C08C5003B08C6003C08C7003E08C8004B
:100A800042243908C4003A08C5003908C6003C08A9
:100A9000C7003E08C80042243B08C4003A08C5000D
:100AA0003B08C6003C08C7003E08C800422400348A
:100AB0003A3084008313000803196B2D0630F800C8
:100AC000F701F70B612DF80B602D7B30F700F70B6A
:100AD000672D800B5E2D8A110A12E52E8401831387
:100AE0001F30830583161F149F141F159F11073095
:100AF0009C00FF308312A0004130A1003530A200DD
:100B0000A3014130A4003430A500A6014130A70064
:100B10003330A800A9014130AA003230AB00AC014B
:100B20004130AD003130AE00AF014130B000303067
:100B3000B100B2015330B3004530B4004330B500CA
:100B40002030B6004130B700B8010130B900392A71
:100B50002130B9001E30BA00BC012130BB00013089
:100B6000BD00BE006C233130B9001E30BA00BC019C
:100B70002430BB000130BD00BE006C234130B90001
:100B80001E30BA00BC012730BB000130BD00BE00E2
:100B90006C235130B9001E30BA00BC012A30BB00B2
:100BA0000130BD00BE006C236130B9001E30BA00B8
:100BB000BC012D30BB000130BD00BE006C23713084
:100BC000B9001E30BA00BC013030BB000130BD009E
:100BD000BE006C231E30B9000530BA00BC013330B2
:100BE000BB000230BD000130BE006C23851A052E0B
:100BF0002030B9002830BA002E30BB003C30BC0099
:100C00000130BD00BE00F824112E1E30B90028307E
:100C1000BA002E30BB003C30BC000130BD00BE012C
:100C2000F8242030B9002830BA002E30BB003C3008
:100C3000BC00BD010130BE00F824051A2C2E303056
:100C4000B9002830BA003E30BB003C30BC00013057
:100C5000BD00BE00F824382E3030B9002830BA006C
:100C60003E30BB003C30BC000130BD00BE01F8246A
:100C70003030B9002830BA003E30BB003C30BC00F8
:100C8000BD010130BE00F8248519532E4030B90053
:100C90002830BA004E30BB003C30BC000130BD00F3
:100CA000BE00F8245F2E4030B9002830BA004E3024
:100CB000BB003C30BC000130BD00BE01F824403018
:100CC000B9002830BA004E30BB003C30BC00BD013A
:100CD0000130BE00F82405197A2E5030B9002830B2
:100CE000BA005E30BB003C30BC000130BD00BE002D
:100CF000F824862E5030B9002830BA005E30BB0090
:100D00003C30BC000130BD00BE01F8245030B900B9
:100D10002830BA005E30BB003C30BC00BD01013061
:100D2000BE00F8248518A12E6030B9002830BA0022
:100D30006E30BB003C30BC000130BD00BE00F8246A
:100D4000AD2E6030B9002830BA006E30BB003C30A8
:100D5000BC000130BD00BE01F8246030B90028306D
:100D6000BA006E30BB003C30BC00BD010130BE009B
:100D7000F8240518C82E7030B9002830BA007E302B
:100D8000BB003C30BC000130BD00BE00F824D42EB6
:100D90007030B9002830BA007E30BB003C30BC0057
:100DA0000130BD00BE01F8247030B9002830BA000F
:100DB0007E30BB003C30BC00BD010130BE00F824D9
:100DC0000230B900C830BA00582DB90BE22EF62D0A
:020DD0006300BE
:02400E00723FFF
:00000001FF
;PIC16F877A
