:030000000217855F
:0C178500787FE4F6D8FD7581470217CC90
:10129700110B0F0C120C0E011001100211020E039C
:1012A70012030E0413040C0514050C0615060A0791
:1012B70017070808180808091909060A1A0A060B61
:1012C7001B0B040C130C03011B0105021C02030377
:1012D7001D0303041E04020501061F0702071D085C
:1012E70004081B0905091B0A060A190B070B190C29
:1012F700080C17010A011602090216030B0315044D
:101307000B0415040C0413050D0513060E0611072F
:101317001007100810080F0912090E0A120A0D0B00
:10132700140B0C0C150C0A0114010C0215020A030C
:1013370016030A04170408051805080619060707FF
:101347001A0705081B0805091C09030A1D0A030BD0
:10135700010C1F0102011E0201021F0302031D04EB
:1013670003041D0504051B0605061B0706071908C8
:1013770008081809080918090909160A0A0A160B9C
:101387000B0B140C0D0C13010B0114020D021303AC
:101397000D0312040F0410051005100611060E07A1
:1013A70013070D0813080D0914090C0A140A0B0B6F
:1013B700160B0A0C170C080117010902180207037C
:1013C700190307041A0405051B0504061D06030770
:1013D70001081F09030B1D0C01091F0A020A1D0B37
:1013E700040C1C0105011A0204021C0305031A045C
:1013F70006041A0507051806080617060A0616073B
:101407000B0714080C0814090D09120A0E0A120B0F
:101417000F0B110C100C10010E011102100210031A
:1014270010030F0412040E0512050D0614060B0710
:1014370016070A08160809091809070A190A070BDF
:101447001A0B060C1B0C0501190106021B020503EA
:101457001B0305041C0403051D05030601071E08DD
:1014670003081D0903091C0A050A1A0B060B1A0CA7
:10147700070C1901080117020802180309031704CA
:10148700090417040A0415050B0515060C061307AE
:101497000E0711080F08110910090F0A110A0E0B80
:0D1B0C000B3A3F065B4F666D7D077F6F391A
:100B2400ED14FDEB640A703EED25E025E02499F513
:100B340082E43412F583E493FCEFC39C500FED255B
:100B4400E025E02497F582E43412020DE9EFD39C0A
:100B5400400FED25E025E02499F582E43412020EDD
:100B6400037E01020E11EB640B703EED25E025E0DF
:100B740024C9F582E43412F583E493FCEFC39C505A
:100B84000FED25E025E024C7F582E43412020DE9D7
:100B9400EFD39C400FED25E025E024C9F582E43431
:100BA40012020E037E01020E11EB640B703EED2562
:100BB400E025E024C9F582E43412F583E493FCEFE4
:100BC400C39C500FED25E025E024C7F582E43412E0
:100BD400020DE9EFD39C400FED25E025E024C9F593
:100BE40082E43412020E037E01020E11EB640C70D7
:100BF4003EED25E025E024F9F582E43412F583E4A2
:100C040093FCEFC39C500FED25E025E024F7F5821B
:100C1400E43412020DE9EFD39C400FED25E025E00A
:100C240024F9F582E43412020E037E01020E11EB64
:100C3400640D703EED25E025E02429F582E43413AB
:100C4400F583E493FCEFC39C500FED25E025E024ED
:100C540027F582E43413020DE9EFD39C400FED2510
:100C6400E025E02429F582E43413020E037E010218
:100C74000E11EB640E703EED25E025E02459F5825B
:100C8400E43413F583E493FCEFC39C500FED25E0AB
:100C940025E02457F582E43413020DE9EFD39C4098
:100CA4000FED25E025E02459F582E43413020E0308
:100CB4007E01020E11EB640F703EED25E025E02469
:100CC40089F582E43413F583E493FCEFC39C500F5D
:100CD400ED25E025E02487F582E43413020DE9EFE5
:100CE400D39C400FED25E025E02489F582E43413FC
:100CF400020E037E01020E11EB6410703EED25E03E
:100D040025E024B9F582E43413F583E493FCEFC3BE
:100D14009C500FED25E025E024B7F582E43413025E
:100D24000DE9EFD39C400FED25E025E024B9F582D1
:100D3400E43413020E037E01020E11EB6411703EC3
:100D4400ED25E025E024E9F582E43413F583E4930A
:100D5400FCEFC39C500FED25E025E024E7F582E489
:100D64003413020DE9EFD39C400FED25E025E02478
:100D7400E9F582E43413020E037E01020E11EB64E2
:100D840013703BED25E025E02449F582E43414F5A5
:100D940083E493FCEFC39C500EED25E025E024474B
:100DA400F582E43414803EEFD39C400EED25E0251B
:100DB400E02449F582E4341480457E01804FEB64DD
:100DC40014704AED25E025E02479F582E43414F525
:100DD40083E493FCEFC39C5015ED25E025E02477D4
:100DE400F582E43414F583E4932F14FE801FEFD3CB
:100DF4009C4018ED25E025E02479F582E43414F5CF
:0F0E040083E493FEC3EF9E04FE80027E01AF06DF
:010E130022BC
:100E1400ED14FDEB640A7033ED25E025E02499F52B
:100E240082E43412F583E493FCEFC39CED500E2569
:100E3400E025E02498F582E4341202107025E025C0
:100E4400E0249AF582E43412021070EB640B7032E1
:100E5400ED25E025E024C9F582E43412F583E4931A
:100E6400FCEFC39CED500D25E025E024C8F582E499
:100E74003412800B25E025E024CAF582E434120202
:100E84001070EB640C7032ED25E025E024F9F58256
:100E9400E43412F583E493FCEFC39CED500D25E09C
:100EA40025E024F8F582E43412800B25E025E024C3
:100EB400FAF582E43412021070EB640D7032ED2501
:100EC400E025E02429F582E43413F583E493FCEF70
:100ED400C39CED500D25E025E02428F582E434136D
:100EE400800B25E025E0242AF582E43413021070F7
:100EF400EB640E7032ED25E025E02459F582E434EC
:100F040013F583E493FCEFC39CED500D25E025E03D
:100F14002458F582E43413800B25E025E0245AF5A7
:100F240082E43413021070EB640F7032ED25E02577
:100F3400E02489F582E43413F583E493FCEFC39C45
:100F4400ED500D25E025E02488F582E43413800B70
:100F540025E025E0248AF582E43413021070EB6462
:100F6400107032ED25E025E024B9F582E43413F560
:100F740083E493FCEFC39CED500D25E025E024B8F9
:100F8400F582E43413800B25E025E024BAF582E4ED
:100F94003413021070EB64117032ED25E025E02467
:100FA400E9F582E43413F583E493FCEFC39CED503C
:100FB4000D25E025E024E8F582E43413800B25E0D8
:100FC40025E024EAF582E43413021070EB64127015
:100FD40031ED25E025E02419F582E43414F583E4A9
:100FE40093FCEFC39CED500D25E025E02418F58219
:100FF400E43414800B25E025E0241AF582E434144B
:10100400806AEB64137031ED25E025E02449F58214
:10101400E43414F583E493FCEFC39CED500D25E018
:1010240025E02448F582E43414800B25E025E024EF
:101034004AF582E434148034EB64147034ED25E012
:1010440025E02479F582E43414F583E493FCEFC3BA
:101054009CED500D25E025E02478F582E4341480DD
:101064000B25E025E0247AF582E43414F583E49337
:03107400FEAF06C6
:011077002256
:101A6900EFD39D5006AF2EAB07800BEFD39D4006F9
:081A7900AF2EEF24FFFBAF03C9
:011A81002242
:0719FE007FE87E03121AE1ED
:101A0500E4F508D2977F327E00121AE1C2977F3241
:0E1A15007E00121AE10508E508C3946440E55E
:011A230022A0
:101A4800D291C291D290D2917F027E00121AE1C245
:101A5800907F027E00121AE1C2917F027E00021A74
:011A6800E19C
:101A8200D291C291C2907F027E00121AE1D2917F5E
:091A9200027E00121AE1D290223A
:101A2400E4FEEF30E703D38001C39290D291C291D8
:101A3400EF25E0FF0EBE08EAD2917F027E00121A63
:031A4400E1C2916B
:011A4700227C
:1018E100E4F50CF50B7F027E00121AE1D2917F0222
:1018F1007E00121AE1A2909200E50C25E0F50CA2FF
:1019010000E433420CC291050BE50BC3940840D5AA
:02191100AF0C19
:0119130022B1
:02189A008F08B5
:10189C00121A487FD0121A24AF08121A24121A48AE
:1018AC007FD1121A241218E17509008F0A121A82BC
:1018BC00E509C4F854F0C868FEE50AC4540F48FFA3
:1018CC007C007D0A121833E50A540F2FF50AEC3E02
:0418DC00F509AF0A51
:0118E00022E5
:041977008F088D093F
:10197B00AF097E007C007D0A121845E50975F00A57
:10198B0084C454F04DF509121A487FD0121A24AFB3
:0C199B0008121A24AF09121A24021A8242
:101A9B00121A487FD0121A247F07121A247F1012B1
:051AAB001A24021A825A
:10191400E4FF12189A8F307F0112189A8F367F02D3
:1019240012189A8F327F0312189A8F317F0412187B
:101934009A8F277F0512189A8F287F0612189A8F7C
:021944002E2251
:10194600AD30E4FF121977AD367F01121977AD324B
:101956007F02121977AD317F03121977AD277F0405
:10196600121977AD287F05121977AD2E7F06021959
:0119760077F9
:101AB000AD227F08121977AD217F09121977AD4643
:051AC0007F0C02197704
:101AC500AD2F7F0A121977AD2D7F0B121977AD292E
:051AD5007F0D021977EE
:1019D3007F0812189A8F227F0912189A8F217F0A83
:1019E30012189A8F2F7F0B12189A8F2D7F0C1218B3
:0B19F3009A8F467F0D12189A8F292250
:071ADA001214A77F507EC328
:0B1AE100EF1FAC0670011E4C70F622D7
:0E1AFE007590FF75A0FFC297E4F5B0F5802249
:101AEC00758911D2ABD2A9D2AFC28DC28FD28CD292
:021AFC008E2238
:1014A700E52E75F004121811AFF0D3E53664809479
:1014B700BB4003E4F536D3E532648094974003E4F8
:1014C700F532D3E531648094874003753101E5280F
:1014D700B4020ED3E5276480949D4005EF70028027
:1014E70041E528B4020ED3E5276480949C4005EFBC
:1014F7006002802EE52864046011E5286406600B0D
:10150700E52864096005E528B40B0ED3E527648058
:10151700949E4005EF60028009D3E5276480949F7D
:101527004003752701D3E5286480948C4003752810
:1015370001D3E52E648094E340110545E4F52ED3ED
:10154700E545648094E34003E4F545D3E5226480F0
:1015570094BB4003E4F522D3E521648094974003CC
:10156700E4F521D3E52F648094BB4003E4F52FD342
:10157700E52D648094974003E4F52DC3E536648038
:101587009480500375363BC3E532648094805003E2
:10159700753217C3E531648094815003753107E5CF
:1015A70028B40211C3E527648094815008EF7005C1
:1015B70075271D804AE528B40211C3E52764809486
:1015C700815008EF600575271C8034E528640460A6
:1015D70011E5286406600BE52864096005E528B471
:1015E7000B11C3E527648094815008EF60057527C8
:1015F7001E800CC3E52764809481500375271FC3A1
:10160700E52864809481500375280CC3E52E648017
:10161700948050111545752E63C3E5456480948009
:101627005003754563C3E522648094805003752297
:101637003BC3E521648094805003752117C3E52FD0
:10164700648094805003752F3BC3E52D648094809C
:051657005003752D1782
:01165C00226B
:101078002095537FE87E03121AE13095FD7FE87EC4
:1010880003121AE1E5397015E5387011E524700D81
:10109800E53470090523E523B402058000E4F5234F
:1010A800121A05E4F534F524F538F539E546B401A6
:1010B80005121AB08003121946E529B40105121A5F
:1010C800C58003121946E539600302119B20921767
:1010D8007FE87E03121AE13092FD1219FE0538E509
:1010E80038B40703753801E5386401701AE53970BA
:1010F800162093080536121A05121ADA20940815D4
:1011080036121A05121ADAE53864027016209308A6
:101118000532121A05121ADA2094081532121A0525
:10112800121ADAE538640370162093080531121A8A
:1011380005121ADA2094081531121A05121ADAE57E
:1011480038640470162093080527121A05121ADA53
:101158002094081527121A05121ADAE53864057062
:10116800162093080528121A05121ADA2094081571
:1011780028121A05121ADAE5386406701620930840
:10118800052E121A05121ADA209408152E121A05BD
:10119800121ADA2096177FE87E03121AE13096FDBC
:1011A8001219FE0539E539B40303753901E53964C7
:1011B80001706620920D121A050524E524B4040373
:1011C800752401E524640170162093080522121A7B
:1011D80005121ADA2094081522121A05121ADAE5ED
:1011E80024640270162093080521121A05121ADACF
:1011F8002094081521121A05121ADAE524640370DE
:1012080018209309754601121A05121ADA20940952
:10121800E4F546121A05121ADAE5396402706620F6
:10122800920D121A050534E534B40403753401E54A
:101238003464017016209308052F121A05121ADA61
:10124800209408152F121A05121ADAE53464027070
:1012580016209308052D121A05121ADA209408157B
:101268002D121A05121ADAE534640370182093094E
:10127800752901121A05121ADA209409E4F52912BF
:0F1288001A05121ADA1214A77FE87E03021AE180
:03000B000219A730
:1019A700C0E0C0D0C28CC28D758CB2758AE0052CA0
:1019B700E52CB40A10752C000537752B01E537B4F3
:0C19C7000403753700D28CD0D0D0E03281
:03001B0002001EC2
:10001E00C0E0C0F0C0D075D000C000C28EC28F75D7
:10002E008DFD758B18E53960030203E10526E52683
:10003E00B4011F853047758000D2B0D2B175A000D3
:10004E00E54775F00A84743A25F0F8E6F580C2B0FB
:10005E00D2B1E526B4021A758000D2B0D2B175A025
:10006E0001E54775F00A84243AF8E6F580C2B0D26D
:10007E00B1E5266403702E853647F580D2B0D2B135
:10008E00E538B4010BE537B40106052605268015C3
:10009E0075A002E54775F00A84743A25F0F8E6F586
:1000AE0080C2B0D2B1E526B4041A758000D2B0D2A7
:1000BE00B175A003E54775F00A84243AF8E6F58099
:1000CE00C2B0D2B1E5266405704EE523B4011AD351
:1000DE00E5326480948C4008E53224F4F547800CB8
:1000EE00E532700575470C8003853247758000D266
:1000FE00B0D2B1E538B4020BE537B40106052605DA
:10010E0026801575A004E54775F00A84743A25F02B
:10011E00F8E6F580C2B0D2B1E526B4061A758000B5
:10012E00D2B0D2B175A005E54775F00A84243AF82D
:10013E00E6F580C2B0D2B1E52664077042C3E53160
:10014E0064809488500DE53164809481400585313A
:10015E00478008E531B4010375470A758000D2B0B7
:10016E00D2B1E538B40309E537B401040526800F92
:10017E0075A006743A2547F8E6F580C2B0D2B1E50F
:10018E00266408702C852747F580D2B0D2B1E538A9
:10019E00B4040BE537B4010605260526801375A0B9
:1001AE0007E54775F00A84243AF8E6F580C2B0D226
:1001BE00B1E526B4091C758000D2B0D2B175A00885
:1001CE00E54775F00A84743A25F0F8E6F580C2B07A
:1001DE00D2B1E526640A702C852847F580D2B0D2BC
:1001EE00B1E538B4050BE537B401060526052680C2
:1001FE001375A009E54775F00A84243AF8E6F580F0
:10020E00C2B0D2B1E526B40B1C758000D2B0D2B10B
:10021E0075A00AE54775F00A84743A25F0F8E6F5FC
:10022E0080C2B0D2B1E526640C7030854547F580AA
:10023E00D2B0D2B1E538B4060FE537B4030A0526BD
:10024E00052605260526801375A00BE54775F00AD1
:10025E0084243AF8E6F580C2B0D2B1E526B40D1C7E
:10026E00758000D2B0D2B175A00CE54775F00A8446
:10027E00743A25F0F8E6F580C2B0D2B1E526B40E98
:10028E001D852E47758000D2B0D2B175A00DE54701
:10029E0075F00A84243AF8E6F580C2B0D2B1E526AC
:1002AE00B40F1C758000D2B0D2B175A00EE54775A3
:1002BE00F00A84743A25F0F8E6F580C2B0D2B1E5C2
:1002CE0026B4101D852A47758000D2B0D2B175A014
:1002DE0000E54775F00A84243AF8E6F580D2B0C2FC
:1002EE00B1E526B4111C758000D2B0D2B175A01044
:1002FE00E54775F00A84743A25F0F8E6F580D2B039
:10030E00C2B1E526B4121D852547758000D2B0D244
:10031E00B175A020E54775F00A84243AF8E6F58019
:10032E00D2B0C2B1E526B4131C758000D2B0D2B1E2
:10033E0075A030E54775F00A84743A25F0F8E6F5B5
:10034E0080D2B0C2B1E526B4141D85354775800044
:10035E00D2B0D2B175A040E54775F00A84243AF8C0
:10036E00E6F580D2B0C2B1E526B4151C758000D278
:10037E00B0D2B175A050E54775F00A84743A25F0F5
:10038E00F8E6F580D2B0C2B1E526B4161D85334726
:10039E00758000D2B0D2B175A060E54775F00A84C1
:1003AE00243AF8E6F580D2B0C2B1E526B4171C7532
:1003BE008000D2B0D2B175A070E54775F00A847492
:1003CE003A25F0F8E6F580D2B0C2B1E526B41803AE
:1003DE00752600E5396401600302077D0526E526D2
:1003EE00B4011F853047758000D2B0D2B175A00020
:1003FE00E54775F00A84743A25F0F8E6F580C2B048
:10040E00D2B1E526B4021A758000D2B0D2B175A071
:10041E0001E54775F00A84243AF8E6F580C2B0D2B9
:10042E00B1E5266403702E853647F580D2B0D2B181
:10043E00E538B4010BE537B401060526052680150F
:10044E0075A002E54775F00A84743A25F0F8E6F5D2
:10045E0080C2B0D2B1E526B4041A758000D2B0D2F3
:10046E00B175A003E54775F00A84243AF8E6F580E5
:10047E00C2B0D2B1E5266405704EE523B4011AD39D
:10048E00E5326480948C4008E53224F4F547800C04
:10049E00E532700575470C8003853247758000D2B2
:1004AE00B0D2B1E538B4020BE537B4010605260526
:1004BE0026801575A004E54775F00A84743A25F078
:1004CE00F8E6F580C2B0D2B1E526B4061A75800002
:1004DE00D2B0D2B175A005E54775F00A84243AF87A
:1004EE00E6F580C2B0D2B1E526B40711758000D210
:1004FE00B0D2B175A006853B80C2B0D2B1E52664FC
:10050E0008702F852247E524B4010BE537B40106A8
:10051E0005260526801C758000D2B0D2B175A00AC2
:10052E00E54775F00A84743A25F0F8E6F580C2B016
:10053E00D2B1E526B4091A758000D2B0D2B175A039
:10054E0009E54775F00A84243AF8E6F580C2B0D280
:10055E00B1E526640A704EE523B4011AD3E5216491
:10056E0080948C4008E52124F4F547800CE5217039
:10057E000575470C8003852147E524B4020BE5374A
:10058E00B4010605260526801C758000D2B0D2B1B6
:10059E0075A008E54775F00A84743A25F0F8E6F57B
:1005AE0080C2B0D2B1E526B40B1A758000D2B0D29B
:1005BE00B175A007E54775F00A84243AF8E6F58090
:1005CE00C2B0D2B1E526640C7024F580D2B0D2B19F
:1005DE00E524B4030FE537B4020A052605260526E1
:1005EE000526800A75A00C853A80C2B0D2B1E526E8
:1005FE00640D701DF580D2B0D2B1E546B401087518
:10060E00A00D758037800675A00D758071C2B0D2B1
:10061E00B1E526640E701DF580D2B0D2B1E546B4B8
:10062E00010875A00E758000800675A00E7580718C
:10063E00C2B0D2B1E526640F7021F580D2B0D2B12E
:10064E00D3E5216480948C400875A00B75804080A2
:10065E000675A00B758000C2B0D2B1E526B4101D90
:10066E00852A47758000D2B0D2B175A000E54775D6
:10067E00F00A84243AF8E6F580D2B0C2B1E526B489
:10068E00111C758000D2B0D2B175A010E54775F07F
:10069E000A84743A25F0F8E6F580D2B0C2B1E526A8
:1006AE00B4121D852547758000D2B0D2B175A02039
:1006BE00E54775F00A84243AF8E6F580D2B0C2B167
:1006CE00E526B4131C758000D2B0D2B175A030E50A
:1006DE004775F00A84743A25F0F8E6F580D2B0C278
:1006EE00B1E526B4141D853547758000D2B0D2B160
:1006FE0075A040E54775F00A84243AF8E6F580D2F5
:10070E00B0C2B1E526B4151C758000D2B0D2B17559
:10071E00A050E54775F00A84743A25F0F8E6F580A6
:10072E00D2B0C2B1E526B4161D853347758000D20E
:10073E00B0D2B175A060E54775F00A84243AF8E6A8
:10074E00F580D2B0C2B1E526B4171C758000D2B0C8
:10075E00D2B175A070E54775F00A84743A25F0F8A9
:10076E00E6F580D2B0C2B1E526B41803752600E5D1
:10077E003964026003020B190526E526B4011F85B4
:10078E003047758000D2B0D2B175A000E54775F044
:10079E000A84743A25F0F8E6F580C2B0D2B1E526A7
:1007AE00B4021A758000D2B0D2B175A001E54775BA
:1007BE00F00A84243AF8E6F580C2B0D2B1E5266498
:1007CE0003702E853647F580D2B0D2B1E538B4012C
:1007DE000BE537B4010605260526801575A002E542
:1007EE004775F00A84743A25F0F8E6F580C2B0D267
:1007FE00B1E526B4041A758000D2B0D2B175A0034B
:10080E00E54775F00A84243AF8E6F580C2B0D2B115
:10081E00E5266405704EE523B4011AD3E5326480F3
:10082E00948C4008E53224F4F547800CE5327005CF
:10083E0075470C8003853247758000D2B0D2B1E582
:10084E0038B4020BE537B40106052605268015756A
:10085E00A004E54775F00A84743A25F0F8E6F580B1
:10086E00C2B0D2B1E526B4061A758000D2B0D2B1AC
:10087E0075A005E54775F00A84243AF8E6F580C2BE
:10088E00B0D2B1E526B40711758000D2B0D2B175E1
:10089E00A006853C80C2B0D2B1E5266408702F85D3
:1008AE002F47E534B4010BE537B4010605260526BE
:1008BE00801C758000D2B0D2B175A00AE54775F0E4
:1008CE000A84743A25F0F8E6F580C2B0D2B1E52676
:1008DE00B4091A758000D2B0D2B175A009E547757A
:1008EE00F00A84243AF8E6F580C2B0D2B1E5266467
:1008FE000A704EE523B4011AD3E52D6480948C4022
:10090E0008E52D24F4F547800CE52D700575470C90
:10091E008003852D47E534B4020BE537B401060597
:10092E00260526801C758000D2B0D2B175A008E5D0
:10093E004775F00A84743A25F0F8E6F580C2B0D215
:10094E00B1E526B40B1A758000D2B0D2B175A007EE
:10095E00E54775F00A84243AF8E6F580C2B0D2B1C4
:10096E00E526640C7024F580D2B0D2B1E534B40320
:10097E000FE537B4020A0526052605260526800A48
:10098E0075A00C853A80C2B0D2B1E526640D701DFB
:10099E00F580D2B0D2B1E529B4010875A00D7580ED
:1009AE0037800675A00D758071C2B0D2B1E5266490
:1009BE000E701DF580D2B0D2B1E529B4010875A034
:1009CE000E758000800675A00E758071C2B0D2B112
:1009DE00E526640F7021F580D2B0D2B1D3E52D6437
:1009EE0080948C400875A00B758040800675A00B16
:1009FE00758000C2B0D2B1E526B4101D852A4775A8
:100A0E008000D2B0D2B175A000E54775F00A8424FB
:100A1E003AF8E6F580D2B0C2B1E526B4111C758065
:100A2E0000D2B0D2B175A010E54775F00A84743AC1
:100A3E0025F0F8E6F580D2B0C2B1E526B4121D85D8
:100A4E002547758000D2B0D2B175A020E54775F06C
:100A5E000A84243AF8E6F580D2B0C2B1E526B41382
:100A6E001C758000D2B0D2B175A030E54775F00A82
:100A7E0084743A25F0F8E6F580D2B0C2B1E526B41A
:100A8E00141D853547758000D2B0D2B175A040E5F2
:100A9E004775F00A84243AF8E6F580D2B0C2B1E583
:100AAE0026B4151C758000D2B0D2B175A050E547A2
:100ABE0075F00A84743A25F0F8E6F580D2B0C2B12A
:100ACE00E526B4161D853347758000D2B0D2B175B8
:100ADE00A060E54775F00A84243AF8E6F580D2B0B6
:100AEE00C2B1E526B4171C758000D2B0D2B175A084
:100AFE0070E54775F00A84743A25F0F8E6F580D271
:100B0E00B0C2B1E526B41803752600D28ED000D03F
:060B1E00D0D0F0D0E0325F
:10165D00121A9BE4F52BF538F526F52C121A057F99
:10166D00647E00121AE1121AFE75451475351412B6
:10167D001AEC1219D3121914E4FDFF121977D3E5E0
:10168D002E64809489402DE52E6480949A502575A2
:10169D003514754514AB2EAD28AF27120B248F2AA8
:1016AD00AB2EAD28AF27120E148F25AD28121A6957
:1016BD008F338009E4F535F533F525F52A121078C9
:1016CD00C3E5326480948C4006D2B2C2B38004C2AA
:1016DD00B2D2B37F647E00121AE1E5387029E52B92
:1016ED0064017023E532B40C16E5367012E53070E6
:1016FD000EF52B1219147D0AE4FF121977800FE4F1
:10170D00F52B1219148007E4FF12189A8F30E52279
:10171D00B5361EE521B53219E546B40114C3E530E1
:10172D00648094BB5008121A05121ADD8003E4F58B
:10173D0046E52F6536600302168BE52D6532600395
:10174D0002168BD3E53164809481500302168BE52C
:10175D003164809487400302168BE5296401600390
:10176D0002168BC3E530648094BB400302168B12C6
:08177D001A05121ADD02168B99
:1017910002165DE493A3F8E493A34003F68001F2FB
:1017A10008DFF48029E493A3F85407240CC8C33359
:1017B100C4540F4420C8834004F456800146F6DF28
:1017C100E4800B0102040810204080901B0CE47E91
:1017D100019360BCA3FF543F30E509541FFEE4931D
:1017E100A360010ECF54C025E060A840B8E493A3E4
:1017F100FAE493A3F8E493A3C8C582C8CAC583CA0F
:10180100F0A3C8C582C8CAC583CADFE9DEE780BEC6
:011B190000CB
:10181100C2D530F707B2D563F0FF05F030E70CB25F
:10182100D5F4048463F0FF05F080018430D502F41F
:0218310004228F
:10183300EF8DF0A4A8F0CF8CF0A428CE8DF0A42EC9
:02184300FE2283
:10184500BC000BBE0029EF8DF084FFADF022E4CC87
:10185500F875F008EF2FFFEE33FEEC33FCEE9DEC50
:10186500984005FCEE9DFE0FD5F0E9E4CEFD22ED96
:10187500F8F5F0EE8420D21CFEADF075F008EF2FE0
:10188500FFED33FD4007985006D5F0F222C398FDD1
:051895000FD5F0EA226E
:00000001FF
