:03000000021AC41D
:0C1AC400787FE4F6D8FD758147021B0B0B
:1012DA00110B0F0C120C0E011001100211020E0359
:1012EA0012030E0413040C0514050C0615060A074E
:1012FA0017070808180808091909060A1A0A060B1E
:10130A001B0B040C130C03011B0105021C02030333
:10131A001D0303041E04020501061F0702071D0818
:10132A0004081B0905091B0A060A190B070B190CE5
:10133A00080C17010A011602090216030B03150409
:10134A000B0415040C0413050D0513060E061107EC
:10135A001007100810080F0912090E0A120A0D0BBD
:10136A00140B0C0C150C0A0114010C0215020A03C9
:10137A0016030A04170408051805080619060707BC
:10138A001A0705081B0805091C09030A1D0A030B8D
:10139A00010C1F0102011E0201021F0302031D04A8
:1013AA0003041D0504051B0605061B070607190885
:1013BA0008081809080918090909160A0A0A160B59
:1013CA000B0B140C0D0C13010B0114020D02130369
:1013DA000D0312040F0410051005100611060E075E
:1013EA0013070D0813080D0914090C0A140A0B0B2C
:1013FA00160B0A0C170C0801170109021802070339
:10140A00190307041A0405051B0504061D0603072C
:10141A0001081F09030B1D0C01091F0A020A1D0BF3
:10142A00040C1C0105011A0204021C0305031A0418
:10143A0006041A0507051806080617060A061607F7
:10144A000B0714080C0814090D09120A0E0A120BCC
:10145A000F0B110C100C10010E01110210021003D7
:10146A0010030F0412040E0512050D0614060B07CD
:10147A0016070A08160809091809070A190A070B9C
:10148A001A0B060C1B0C0501190106021B020503A7
:10149A001B0305041C0403051D05030601071E089A
:1014AA0003081D0903091C0A050A1A0B060B1A0C64
:1014BA00070C190108011702080218030903170487
:1014CA00090417040A0415050B0515060C0613076B
:1014DA000E0711080F08110910090F0A110A0E0B3D
:1014EA00130B0D0C140C0C0112010D0214020C0347
:1014FA0014030C0415040A0516050A06170608073C
:10150A0019070708190806091B09050A1B0A040B0B
:10151A001D0B030C01011C011D01030201031F0421
:10152A0001041E0503051D0603061D0704071B0803
:10153A0006081A090609190A080A180B080B170CD3
:10154A000A0C16010B0114020A0216020B021403FA
:10155A000C0313040E0412050E0512060F061007DB
:10156A0011070F0811080F0912090D0A130A0D0BAA
:10157A00140B0B0C160C0A0115010A0217020903B7
:10158A0017030804190406051A0506061B060407AC
:10159A001D0703081D080309010A010A010B1F0C94
:1015AA00020C1D0104011C0202021D0304031C0497
:1015BA0004041B0506051906070619060806170777
:1015CA000A0716080A0815090C09140A0C0A140B4A
:0D1E4B000B3A3F065B4F666D7D077F6F39D8
:100B2400ED14FDEB640A703EED25E025E024DCF5D0
:100B340082E43412F583E493FCEFC39C500FED255B
:100B4400E025E024DAF582E43412020F38EFD39C76
:100B5400400FED25E025E024DCF582E43412020F99
:100B6400527E01020F60EB640B703EED25E025E040
:100B7400240CF582E43413F583E493FCEFC39C5016
:100B84000FED25E025E0240AF582E43413020F3842
:100B9400EFD39C400FED25E025E0240CF582E434EE
:100BA40013020F527E01020F60EB640B703EED25C1
:100BB400E025E0240CF582E43413F583E493FCEFA0
:100BC400C39C500FED25E025E0240AF582E434139C
:100BD400020F38EFD39C400FED25E025E0240CF5FF
:100BE40082E43413020F527E01020F60EB640C7036
:100BF4003EED25E025E0243CF582E43413F583E45E
:100C040093FCEFC39C500FED25E025E0243AF582D8
:100C1400E43413020F38EFD39C400FED25E025E0B8
:100C2400243CF582E43413020F527E01020F60EB80
:100C3400640D703EED25E025E0246CF582E4341368
:100C4400F583E493FCEFC39C500FED25E025E024ED
:100C54006AF582E43413020F38EFD39C400FED257C
:100C6400E025E0246CF582E43413020F527E010285
:100C74000F60EB640E703EED25E025E0249CF582C8
:100C8400E43413F583E493FCEFC39C500FED25E0AB
:100C940025E0249AF582E43413020F38EFD39C4004
:100CA4000FED25E025E0249CF582E43413020F5275
:100CB4007E01020F60EB640F703EED25E025E02419
:100CC400CCF582E43413F583E493FCEFC39C500F1A
:100CD400ED25E025E024CAF582E43413020F38EF51
:100CE400D39C400FED25E025E024CCF582E43413B9
:100CF400020F527E01020F60EB6410703EED25E09E
:100D040025E024FCF582E43413F583E493FCEFC37B
:100D14009C500FED25E025E024FAF582E43413021B
:100D24000F38EFD39C400FED25E025E024FCF5823D
:100D3400E43413020F527E01020F60EB6411703E23
:100D4400ED25E025E0242CF582E43414F583E493C6
:100D5400FCEFC39C500FED25E025E0242AF582E446
:100D64003414020F38EFD39C400FED25E025E02426
:100D74002CF582E43414020F527E01020F60EB64FE
:100D840013703EED25E025E0248CF582E43414F55F
:100D940083E493FCEFC39C500FED25E025E0248A07
:100DA400F582E43414020F38EFD39C400FED25E0B4
:100DB40025E0248CF582E43414020F527E01020FE4
:100DC40060EB6414703EED25E025E024BCF582E47C
:100DD4003414F583E493FCEFC39C500FED25E02518
:100DE400E024BAF582E43414020F38EFD39C400FA8
:100DF400ED25E025E024BCF582E43414020F527E94
:100E040001020F60EB6415703EED25E025E024EC53
:100E1400F582E43414F583E493FCEFC39C500FEDA6
:100E240025E025E024EAF582E43414020F38EFD3F8
:100E34009C400FED25E025E024ECF582E434140217
:100E44000F527E01020F60EB6416703EED25E02523
:100E5400E0241CF582E43415F583E493FCEFC39C91
:100E6400500FED25E025E0241AF582E43415020F35
:100E740038EFD39C400FED25E025E0241CF582E4F7
:100E84003415020F527E01020F60EB6417703EEDC1
:100E940025E025E0244CF582E43415F583E493FC45
:100EA400EFC39C500FED25E025E0244AF582E4349D
:100EB40015020F38EFD39C400FED25E025E0244CBC
:100EC400F582E43415020F527E01020F60EB6418C0
:100ED400703BED25E025E0247CF582E43415F583B0
:100EE400E493FCEFC39C500EED25E025E0247AF555
:100EF40082E43415803EEFD39C400EED25E025E0DE
:100F0400247CF582E4341580457E01804FEB64191E
:100F1400704AED25E025E024ACF582E43415F58330
:100F2400E493FCEFC39C5015ED25E025E024AAF5DD
:100F340082E43415F583E4932F14FE801FEFD39CD1
:100F44004018ED25E025E024ACF582E43415F58362
:0E0F5400E493FEC3EF9E04FE80027E01AF0612
:010F6200226C
:100F6300ED14FDEB640A7033ED25E025E024DCF598
:100F730082E43412F583E493FCEFC39CED500E2519
:100F8300E025E024DBF582E434120212D225E025C9
:100F9300E024DDF582E434120212D2EB640B7032EA
:100FA300ED25E025E0240CF582E43413F583E49386
:100FB300FCEFC39CED500D25E025E0240BF582E406
:100FC3003413800B25E025E0240DF582E43413026D
:100FD30012D2EB640C7032ED25E025E0243CF5825F
:100FE300E43413F583E493FCEFC39CED500D25E04B
:100FF30025E0243BF582E43413800B25E025E0242F
:101003003DF582E434130212D2EB640D7032ED2508
:10101300E025E0246CF582E43413F583E493FCEFDC
:10102300C39CED500D25E025E0246BF582E43413D9
:10103300800B25E025E0246DF582E434130212D2FF
:10104300EB640E7032ED25E025E0249CF582E43458
:1010530013F583E493FCEFC39CED500D25E025E0ED
:10106300249BF582E43413800B25E025E0249DF5D1
:1010730082E434130212D2EB640F7032ED25E025C3
:10108300E024CCF582E43413F583E493FCEFC39CB2
:10109300ED500D25E025E024CBF582E43413800BDD
:1010A30025E025E024CDF582E434130212D2EB646B
:1010B300107032ED25E025E024FCF582E43413F5CD
:1010C30083E493FCEFC39CED500D25E025E024FB66
:1010D300F582E43413800B25E025E024FDF582E45A
:1010E30034130212D2EB64117032ED25E025E024B3
:1010F3002CF582E43414F583E493FCEFC39CED50A8
:101103000D25E025E0242BF582E43414800B25E043
:1011130025E0242DF582E434140212D2EB6412701C
:1011230032ED25E025E0245CF582E43414F583E414
:1011330093FCEFC39CED500D25E025E0245BF58285
:10114300E43414800B25E025E0245DF582E43414B7
:101153000212D2EB64137032ED25E025E0248CF506
:1011630082E43414F583E493FCEFC39CED500D2526
:10117300E025E0248BF582E43414800B25E025E0A0
:10118300248DF582E434140212D2EB64147032ED30
:1011930025E025E024BCF582E43414F583E493FCD4
:1011A300EFC39CED500D25E025E024BBF582E4342C
:1011B30014800B25E025E024BDF582E434140212EB
:1011C300D2EB64157032ED25E025E024ECF582E4E2
:1011D3003414F583E493FCEFC39CED500D25E02517
:1011E300E024EBF582E43414800B25E025E024EDC4
:1011F300F582E434140212D2EB64167032ED25E06A
:1012030025E0241CF582E43415F583E493FCEFC355
:101213009CED500D25E025E0241BF582E434158078
:101223000B25E025E0241DF582E434150212D2EBF0
:1012330064177031ED25E025E0244CF582E4341584
:10124300F583E493FCEFC39CED500D25E025E024EA
:101253004BF582E43415800B25E025E0244DF5821F
:10126300E43415806AEB64187031ED25E025E02441
:101273007CF582E43415F583E493FCEFC39CED50D5
:101283000D25E025E0247BF582E43415800B25E071
:1012930025E024ADF582E434158034EB6419703411
:1012A300ED25E025E024ACF582E43415F583E493E1
:1012B300FCEFC39CED500D25E025E024ABF582E463
:1012C3003415800B25E025E024ADF582E43415F5D3
:0612D30083E493FEAF0668
:0112D90022F2
:101DA800EFD39D5006AF2EAB07800BEFD39D4006B7
:081DB800AF2EEF24FFFBAF0387
:011DC0002200
:071D3D007FE87E03121E2067
:101D4400E4F508D2977F327E00121E20C2977F32BC
:0E1D54007E00121E200508E508C3946440E5D9
:011D6200225E
:101D8700D291C291D290D2917F027E00121E20C2C0
:101D9700907F027E00121E20C2917F027E00021EEB
:011DA700201B
:101DC100D291C291C2907F027E00121E20D2917FD9
:091DD100027E00121E20D29022B5
:101D6300E4FEEF30E703D38001C39290D291C29196
:101D7300EF25E0FF0EBE08EAD2917F027E00121E1D
:031D830020C291EA
:011D8600223A
:101C2000E4F50CF50B7F027E00121E20D2917F029C
:101C30007E00121E20A2909200E50C25E0F50CA279
:101C400000E433420CC291050BE50BC3940840D568
:021C5000AF0CD7
:011C5200226F
:021BD9008F0873
:101BDB00121D877FD0121D63AF08121D63121D8764
:101BEB007FD1121D63121C207509008F0A121DC1B3
:101BFB00E509C4F854F0C868FEE50AC4540F48FF61
:101C0B007C007D0A121B72E50A540F2FF50AEC3E7D
:041C1B00F509AF0A0E
:011C1F0022A2
:041CB6008F088D09FD
:101CBA00AF097E007C007D0A121B84E50975F00AD3
:101CCA0084C454F04DF509121D877FD0121D63AFED
:0C1CDA0008121D63AF09121D63021DC13A
:101DDA00121D877FD0121D637F07121D637F1012A9
:051DEA001D63021DC194
:101C5300E4FF121BD98F307F01121BD98F367F020D
:101C6300121BD98F327F03121BD98F317F04121BB2
:101C7300D98F277F05121BD98F287F06121BD98F77
:021C83002E220F
:101C8500AD30E4FF121CB6AD367F01121CB6AD3285
:101C95007F02121CB6AD317F03121CB6AD277F043F
:101CA500121CB6AD287F05121CB6AD2E7F06021C90
:011CB500B678
:101DEF00AD227F08121CB6AD217F09121CB6AD467D
:051DFF007F0C021CB680
:101E0400AD2F7F0A121CB6AD2D7F0B121CB6AD2967
:051E14007F0D021CB669
:101D12007F08121BD98F227F09121BD98F217F0ABC
:101D2200121BD98F2F7F0B121BD98F2D7F0C121BE9
:0B1D3200D98F467F0D121BD98F29228C
:071E19001218027F507EC386
:0B1E2000EF1FAC0670011E4C70F62294
:0E1E3D007590FF75A0FFC297E4F5B0F5802206
:101E2B00758911D2ABD2A9D2AFC28DC28FD28CD24F
:021E3B008E22F5
:10180200E52E75F004121B50AFF0D3E536648094D8
:10181200BB4003E4F536D3E532648094974003E499
:10182200F532D3E531648094874003753101E528B0
:10183200B4020ED3E5276480949D4005EF700280C8
:1018420041E528B4020ED3E5276480949C4005EF5D
:101852006002802EE52864046011E5286406600BAE
:10186200E52864096005E528B40B0ED3E5276480FA
:10187200949E4005EF60028009D3E5276480949F1F
:101882004003752701D3E5286480948C40037528B2
:1018920001D3E52E648094E340110545E4F52ED38F
:1018A200E545648094E34003E4F545D3E522648092
:1018B20094BB4003E4F522D3E5216480949740036E
:1018C200E4F521D3E52F648094BB4003E4F52FD3E4
:1018D200E52D648094974003E4F52DC3E5366480DA
:1018E2009480500375363BC3E53264809480500384
:1018F200753217C3E531648094815003753107E571
:1019020028B40211C3E527648094815008EF700562
:1019120075271D804AE528B40211C3E52764809427
:10192200815008EF600575271C8034E52864046047
:1019320011E5286406600BE52864096005E528B412
:101942000B11C3E527648094815008EF6005752769
:101952001E800CC3E52764809481500375271FC342
:10196200E52864809481500375280CC3E52E6480B9
:10197200948050111545752E63C3E54564809480AB
:101982005003754563C3E522648094805003752239
:101992003BC3E521648094805003752117C3E52F72
:1019A200648094805003752F3BC3E52D648094803E
:0519B2005003752D1724
:0119B700220D
:1015DA002095567FE87E03121E203095FD7FE87E17
:1015EA0003121E20E5397015E5387011E524700DD7
:1015FA00E53470090523E523B402058000E4F523E8
:10160A00121D44E4F534F524F538F539121C85E544
:10161A0046B401028003121C85121DEFE529B401AC
:10162A0005121E048003121C85E5396003021700A7
:10163A002092177FE87E03121E203092FD121D3D74
:10164A000538E538B40703753801E5386401701ABE
:10165A00E53970162093080536121D44121E19200A
:10166A0094081536121D44121E19E53864027016C4
:10167A002093080532121D44121E192094081532AF
:10168A00121D44121E19E5386403701620930805CA
:10169A0031121D44121E192094081531121D4412CC
:1016AA001E19E538640470162093080527121D4494
:1016BA00121E192094081527121D44121E19E53806
:1016CA00640570162093080528121D44121E19205D
:1016DA0094081528121D44121E19E538640670165E
:1016EA00209308052E121D44121E19209408152E47
:1016FA00121D44121E192096177FE87E03121E201F
:10170A003096FD121D3D0539E539B40303753901DB
:10171A00E539640170702092177FE87E03121E205B
:10172A003092FD121D3D0524E524B40403752401FD
:10173A00E524640170162093080522121D44121E26
:10174A00192094081522121D44121E19E524640258
:10175A0070162093080521121D44121E19209408A0
:10176A001521121D44121E19E524640370182093D2
:10177A0009754601121D44121E19209409E4F54602
:10178A00121D44121E19E539640270622092097F03
:10179A00E87E03121E2080FEE53464017016209351
:1017AA0008052F121D44121E19209408152F121D08
:1017BA0044121E19E53464027016209308052D128E
:1017CA001D44121E19209408152D121D44121E19AB
:1017DA00E53464037018209309752901121D441217
:1017EA001E19209409E4F529121D44121E19121813
:0817FA00027FE87E03021E20BD
:03000B00021CE6EE
:101CE600C0E0C0D0C28CC28D758C64758AC0052CCC
:101CF600E52CB40A10752C000537752B01E537B4B1
:0C1D06000403753700D28CD0D0D0E0323E
:03001B0002001EC2
:10001E00C0E0C0F0C0D075D000C000C28EC28F75D7
:10002E008DFD758B18E53960030203E10526E52683
:10003E00B4011F853047758000D2B0D2B175A000D3
:10004E00E54775F00A84743A25F0F8E6F580C2B0FB
:10005E00D2B1E526B4021A758000D2B0D2B175A025
:10006E0001E54775F00A84243AF8E6F580C2B0D26D
:10007E00B1E5266403702E853647F580D2B0D2B135
:10008E00E538B4010BE537B40106052605268015C3
:10009E0075A002E54775F00A84743A25F0F8E6F586
:1000AE0080C2B0D2B1E526B4041A758000D2B0D2A7
:1000BE00B175A003E54775F00A84243AF8E6F58099
:1000CE00C2B0D2B1E5266405704EE523B4011AD351
:1000DE00E5326480948C4008E53224F4F547800CB8
:1000EE00E532700575470C8003853247758000D266
:1000FE00B0D2B1E538B4020BE537B40106052605DA
:10010E0026801575A004E54775F00A84743A25F02B
:10011E00F8E6F580C2B0D2B1E526B4061A758000B5
:10012E00D2B0D2B175A005E54775F00A84243AF82D
:10013E00E6F580C2B0D2B1E52664077042C3E53160
:10014E0064809488500DE53164809481400585313A
:10015E00478008E531B4010375470A758000D2B0B7
:10016E00D2B1E538B40309E537B401040526800F92
:10017E0075A006743A2547F8E6F580C2B0D2B1E50F
:10018E00266408702C852747F580D2B0D2B1E538A9
:10019E00B4040BE537B4010605260526801375A0B9
:1001AE0007E54775F00A84243AF8E6F580C2B0D226
:1001BE00B1E526B4091C758000D2B0D2B175A00885
:1001CE00E54775F00A84743A25F0F8E6F580C2B07A
:1001DE00D2B1E526640A702C852847F580D2B0D2BC
:1001EE00B1E538B4050BE537B401060526052680C2
:1001FE001375A009E54775F00A84243AF8E6F580F0
:10020E00C2B0D2B1E526B40B1C758000D2B0D2B10B
:10021E0075A00AE54775F00A84743A25F0F8E6F5FC
:10022E0080C2B0D2B1E526640C7030854547F580AA
:10023E00D2B0D2B1E538B4060FE537B4030A0526BD
:10024E00052605260526801375A00BE54775F00AD1
:10025E0084243AF8E6F580C2B0D2B1E526B40D1C7E
:10026E00758000D2B0D2B175A00CE54775F00A8446
:10027E00743A25F0F8E6F580C2B0D2B1E526B40E98
:10028E001D852E47758000D2B0D2B175A00DE54701
:10029E0075F00A84243AF8E6F580C2B0D2B1E526AC
:1002AE00B40F1C758000D2B0D2B175A00EE54775A3
:1002BE00F00A84743A25F0F8E6F580C2B0D2B1E5C2
:1002CE0026B4101D852A47758000D2B0D2B175A014
:1002DE0000E54775F00A84243AF8E6F580D2B0C2FC
:1002EE00B1E526B4111C758000D2B0D2B175A01044
:1002FE00E54775F00A84743A25F0F8E6F580D2B039
:10030E00C2B1E526B4121D852547758000D2B0D244
:10031E00B175A020E54775F00A84243AF8E6F58019
:10032E00D2B0C2B1E526B4131C758000D2B0D2B1E2
:10033E0075A030E54775F00A84743A25F0F8E6F5B5
:10034E0080D2B0C2B1E526B4141D85354775800044
:10035E00D2B0D2B175A040E54775F00A84243AF8C0
:10036E00E6F580D2B0C2B1E526B4151C758000D278
:10037E00B0D2B175A050E54775F00A84743A25F0F5
:10038E00F8E6F580D2B0C2B1E526B4161D85334726
:10039E00758000D2B0D2B175A060E54775F00A84C1
:1003AE00243AF8E6F580D2B0C2B1E526B4171C7532
:1003BE008000D2B0D2B175A070E54775F00A847492
:1003CE003A25F0F8E6F580D2B0C2B1E526B41803AE
:1003DE00752600E5396401600302077D0526E526D2
:1003EE00B4011F853047758000D2B0D2B175A00020
:1003FE00E54775F00A84743A25F0F8E6F580C2B048
:10040E00D2B1E526B4021A758000D2B0D2B175A071
:10041E0001E54775F00A84243AF8E6F580C2B0D2B9
:10042E00B1E5266403702E853647F580D2B0D2B181
:10043E00E538B4010BE537B401060526052680150F
:10044E0075A002E54775F00A84743A25F0F8E6F5D2
:10045E0080C2B0D2B1E526B4041A758000D2B0D2F3
:10046E00B175A003E54775F00A84243AF8E6F580E5
:10047E00C2B0D2B1E5266405704EE523B4011AD39D
:10048E00E5326480948C4008E53224F4F547800C04
:10049E00E532700575470C8003853247758000D2B2
:1004AE00B0D2B1E538B4020BE537B4010605260526
:1004BE0026801575A004E54775F00A84743A25F078
:1004CE00F8E6F580C2B0D2B1E526B4061A75800002
:1004DE00D2B0D2B175A005E54775F00A84243AF87A
:1004EE00E6F580C2B0D2B1E526B40711758000D210
:1004FE00B0D2B175A006853B80C2B0D2B1E52664FC
:10050E0008702F852247E524B4010BE537B40106A8
:10051E0005260526801C758000D2B0D2B175A00AC2
:10052E00E54775F00A84743A25F0F8E6F580C2B016
:10053E00D2B1E526B4091A758000D2B0D2B175A039
:10054E0009E54775F00A84243AF8E6F580C2B0D280
:10055E00B1E526640A704EE523B4011AD3E5216491
:10056E0080948C4008E52124F4F547800CE5217039
:10057E000575470C8003852147E524B4020BE5374A
:10058E00B4010605260526801C758000D2B0D2B1B6
:10059E0075A008E54775F00A84743A25F0F8E6F57B
:1005AE0080C2B0D2B1E526B40B1A758000D2B0D29B
:1005BE00B175A007E54775F00A84243AF8E6F58090
:1005CE00C2B0D2B1E526640C7024F580D2B0D2B19F
:1005DE00E524B4030FE537B4020A052605260526E1
:1005EE000526800A75A00C853A80C2B0D2B1E526E8
:1005FE00640D701DF580D2B0D2B1E546B401087518
:10060E00A00D758037800675A00D758071C2B0D2B1
:10061E00B1E526640E701DF580D2B0D2B1E546B4B8
:10062E00010875A00E758000800675A00E7580718C
:10063E00C2B0D2B1E526640F7021F580D2B0D2B12E
:10064E00D3E5216480948C400875A00B75804080A2
:10065E000675A00B758000C2B0D2B1E526B4101D90
:10066E00852A47758000D2B0D2B175A000E54775D6
:10067E00F00A84243AF8E6F580D2B0C2B1E526B489
:10068E00111C758000D2B0D2B175A010E54775F07F
:10069E000A84743A25F0F8E6F580D2B0C2B1E526A8
:1006AE00B4121D852547758000D2B0D2B175A02039
:1006BE00E54775F00A84243AF8E6F580D2B0C2B167
:1006CE00E526B4131C758000D2B0D2B175A030E50A
:1006DE004775F00A84743A25F0F8E6F580D2B0C278
:1006EE00B1E526B4141D853547758000D2B0D2B160
:1006FE0075A040E54775F00A84243AF8E6F580D2F5
:10070E00B0C2B1E526B4151C758000D2B0D2B17559
:10071E00A050E54775F00A84743A25F0F8E6F580A6
:10072E00D2B0C2B1E526B4161D853347758000D20E
:10073E00B0D2B175A060E54775F00A84243AF8E6A8
:10074E00F580D2B0C2B1E526B4171C758000D2B0C8
:10075E00D2B175A070E54775F00A84743A25F0F8A9
:10076E00E6F580D2B0C2B1E526B41803752600E5D1
:10077E003964026003020B190526E526B4011F85B4
:10078E003047758000D2B0D2B175A000E54775F044
:10079E000A84743A25F0F8E6F580C2B0D2B1E526A7
:1007AE00B4021A758000D2B0D2B175A001E54775BA
:1007BE00F00A84243AF8E6F580C2B0D2B1E5266498
:1007CE0003702E853647F580D2B0D2B1E538B4012C
:1007DE000BE537B4010605260526801575A002E542
:1007EE004775F00A84743A25F0F8E6F580C2B0D267
:1007FE00B1E526B4041A758000D2B0D2B175A0034B
:10080E00E54775F00A84243AF8E6F580C2B0D2B115
:10081E00E5266405704EE523B4011AD3E5326480F3
:10082E00948C4008E53224F4F547800CE5327005CF
:10083E0075470C8003853247758000D2B0D2B1E582
:10084E0038B4020BE537B40106052605268015756A
:10085E00A004E54775F00A84743A25F0F8E6F580B1
:10086E00C2B0D2B1E526B4061A758000D2B0D2B1AC
:10087E0075A005E54775F00A84243AF8E6F580C2BE
:10088E00B0D2B1E526B40711758000D2B0D2B175E1
:10089E00A006853C80C2B0D2B1E5266408702F85D3
:1008AE002F47E534B4010BE537B4010605260526BE
:1008BE00801C758000D2B0D2B175A00AE54775F0E4
:1008CE000A84743A25F0F8E6F580C2B0D2B1E52676
:1008DE00B4091A758000D2B0D2B175A009E547757A
:1008EE00F00A84243AF8E6F580C2B0D2B1E5266467
:1008FE000A704EE523B4011AD3E52D6480948C4022
:10090E0008E52D24F4F547800CE52D700575470C90
:10091E008003852D47E534B4020BE537B401060597
:10092E00260526801C758000D2B0D2B175A008E5D0
:10093E004775F00A84743A25F0F8E6F580C2B0D215
:10094E00B1E526B40B1A758000D2B0D2B175A007EE
:10095E00E54775F00A84243AF8E6F580C2B0D2B1C4
:10096E00E526640C7024F580D2B0D2B1E534B40320
:10097E000FE537B4020A0526052605260526800A48
:10098E0075A00C853A80C2B0D2B1E526640D701DFB
:10099E00F580D2B0D2B1E529B4010875A00D7580ED
:1009AE0037800675A00D758071C2B0D2B1E5266490
:1009BE000E701DF580D2B0D2B1E529B4010875A034
:1009CE000E758000800675A00E758071C2B0D2B112
:1009DE00E526640F7021F580D2B0D2B1D3E52D6437
:1009EE0080948C400875A00B758040800675A00B16
:1009FE00758000C2B0D2B1E526B4101D852A4775A8
:100A0E008000D2B0D2B175A000E54775F00A8424FB
:100A1E003AF8E6F580D2B0C2B1E526B4111C758065
:100A2E0000D2B0D2B175A010E54775F00A84743AC1
:100A3E0025F0F8E6F580D2B0C2B1E526B4121D85D8
:100A4E002547758000D2B0D2B175A020E54775F06C
:100A5E000A84243AF8E6F580D2B0C2B1E526B41382
:100A6E001C758000D2B0D2B175A030E54775F00A82
:100A7E0084743A25F0F8E6F580D2B0C2B1E526B41A
:100A8E00141D853547758000D2B0D2B175A040E5F2
:100A9E004775F00A84243AF8E6F580D2B0C2B1E583
:100AAE0026B4151C758000D2B0D2B175A050E547A2
:100ABE0075F00A84743A25F0F8E6F580D2B0C2B12A
:100ACE00E526B4161D853347758000D2B0D2B175B8
:100ADE00A060E54775F00A84243AF8E6F580D2B0B6
:100AEE00C2B1E526B4171C758000D2B0D2B175A084
:100AFE0070E54775F00A84743A25F0F8E6F580D271
:100B0E00B0C2B1E526B41803752600D28ED000D03F
:060B1E00D0D0F0D0E0325F
:1019B800121DDAE4F52BF538F526F52C121D447FB7
:1019C800647E00121E20121E3D75451475351412D2
:1019D8001E2B121D12121C53E4FDFF121CB6D3E578
:1019E8002E64809489402DE52E6480949A50257544
:1019F8003514754514AB2EAD28AF27120B248F2A4A
:101A0800AB2EAD28AF27120F638F25AD28121DA866
:101A18008F338009E4F535F533F525F52A1215DA03
:101A2800C3E5326480948C4006D2B2C2B38004C24B
:101A3800B2D2B37F647E00121E20E538700DE52B0C
:101A4800B40108E4F52B121C538007E4FF121BD9DC
:101A58008F30E522B5361EE521B53219E546B401C9
:101A680014C3E530648094BB5008121D44121E1C38
:101A78008003E4F546E52F653660030219E6E52D97
:101A8800653260030219E6D3E5316480948150031E
:101A98000219E6E5316480948740030219E6E529D6
:101AA800640160030219E6C3E530648094BB400317
:0C1AB8000219E6121D44121E1C0219E661
:101AD0000219B8E493A3F8E493A34003F68001F25B
:101AE00008DFF48029E493A3F85407240CC8C33317
:101AF000C4540F4420C8834004F456800146F6DFE6
:101B0000E4800B0102040810204080901E4BE47E0C
:101B1000019360BCA3FF543F30E509541FFEE493DA
:101B2000A360010ECF54C025E060A840B8E493A3A1
:101B3000FAE493A3F8E493A3C8C582C8CAC583CACC
:101B4000F0A3C8C582C8CAC583CADFE9DEE780BE84
:011E58000089
:101B5000C2D530F707B2D563F0FF05F030E70CB21D
:101B6000D5F4048463F0FF05F080018430D502F4DD
:021B700004224D
:101B7200EF8DF0A4A8F0CF8CF0A428CE8DF0A42E87
:021B8200FE2241
:101B8400BC000BBE0029EF8DF084FFADF022E4CC45
:101B9400F875F008EF2FFFEE33FEEC33FCEE9DEC0E
:101BA400984005FCEE9DFE0FD5F0E9E4CEFD22ED54
:101BB400F8F5F0EE8420D21CFEADF075F008EF2F9E
:101BC400FFED33FD4007985006D5F0F222C398FD8F
:051BD4000FD5F0EA222C
:00000001FF
