:1000030003030303030303030404040404040404B5
:10001300080808080808080808080808080808085D
:1000230010101010101010101010101010101010CD
:100033002020202020202020C0C0C0C0C0C0C0C0BD
:100043000606060606060606090909090909090935
:10005300101010101010101010101010101010109D
:10006300202020202020202020202020202020208D
:10007300404040404040404080808080808080807D
:100083000C0C0C0C0C0C0C0C12121212121212127D
:10009300212121212121212121212121212121214D
:1000A300404040404040404040404040404040404D
:1000B300808080808080808000000000000000003D
:1000C300181818181818181824242424242424244D
:1000D30042424242424242424242424242424242FD
:1000E30081818181818181818181818181818181FD
:1000F30000000000000000000000000000000000FD
:10010300303030303030303048484848484848482C
:10011300848484848484848484848484848484849C
:1001230002020202020202020202020202020202AC
:1001330001010101010101010000000000000000B4
:10014300606060606060606090909090909090902C
:10015300080808080808080808080808080808081C
:10016300040404040404040404040404040404044C
:100173000202020202020202010101010101010164
:10018300C0C0C0C0C0C0C0C020202020202020206C
:10019300101010101010101010101010101010105C
:1001A30008080808080808080808080808080808CC
:1001B3000404040404040404030303030303030304
:1001C300808080808080808040404040404040402C
:1001D300202020202020202020202020202020201C
:1001E300101010101010101010101010101010100C
:1001F3000909090909090909060606060606060684
:1002030000000000000000008080808080808080EB
:1002130040404040404040404040404040404040DB
:1002230021212121212121212121212121212121BB
:1002330012121212121212120C0C0C0C0C0C0C0CCB
:1002430000000000000000000000000000000000AB
:10025300818181818181818181818181818181818B
:10026300424242424242424242424242424242426B
:10027300242424242424242418181818181818189B
:100283000000000000000000010101010101010163
:10029300020202020202020202020202020202023B
:1002A300848484848484848484848484848484840B
:1002B300484848484848484830303030303030307B
:1002C3000101010101010101020202020202020213
:1002D30004040404040404040404040404040404DB
:1002E300080808080808080808080808080808088B
:1002F300909090909090909060606060606060607B
:100468000820010204081020408008100102040836
:100478001020408008180102040810204080080855
:100488000102040810204080083DFEFDFBF7EFDF65
:10049800BF7F0829010204081020408008350102A6
:0604A80004081020408052
:040604007F0A7E00EB
:10060800E4FDFCD3ED9FEC9E50070DBD00010C806E
:01061800F2EF
:0106190022BE
:1005AC00E4FDFCC3ED9FEE6480F8EC648098500D84
:0D05BC00E4FB0BBB7DFC0DBD00010C80E6D7
:0105C900220F
:0F05CA00743D2534F8E6F5B07F0A7E0012056710
:0E05D900E4F5A075B0FFF5907F05FE0205ACBD
:070560001205D97F0A7E009D
:10056700E4FDEDC39FE49E5015758901758C3C75BC
:0E0577008A60D28C308DFDC28DC28C0D80E466
:010585002253
:0F061A007590FF75A0FFE4F5B07F3CFE02056709
:0A0629001205D97F147E0002056758
:10042100120560E4F534E4F5B07590FF74202534CD
:10043100F8E6F5A01205D21206040534E534C3949A
:100441000840E3E4F534E4F5B07590FFC374079513
:10045100342420F8E6F5A01205D21206040534E58D
:0704610034C3940840E022BF
:1004EE00120560E4F53475A0FF74102534F8E6F5B6
:1004FE00B07590FF0534E534B408EB120560E4F5F1
:10050E003475A0FFC3740795342410F8E6F5B07562
:0A051E0090FF0534E534B408E8222C
:10052800E4F528E4F5341205D975A0FF74182534CC
:10053800F8E6F59074082528F8E6F4F5B07F05127A
:1005480005D41206040534E534C3940840D80528B8
:08055800E528C3940840CC2201
:1004AF00E4F531E4F534E4F52874352531F8E6F553
:1004BF00A074292528F8E6F5901205CA7F147E004E
:1004CF001206080528E528C3940840DD0534E534F5
:0F04DF00C3940840D10531E531C3940840C522CC
:1005E700E4F53475A0FF7590FF1205CA7F147E00ED
:0D05F7001206080534E534C3940840E722DD
:080303008E458F468C478D48A2
:10030B00E4F528C3E5289546E5456480F8748098A4
:10031B005077E4F9E4F534C3E5349548E547648058
:10032B00F87480985058E4FAE4FDEA75F008A4FFDD
:10033B00ED7583002FFFE58335F0FE75F040E9A4E2
:10034B002403F582E5F03400F583E5822FF582E591
:10035B00833EF583E493F590743D2DF8E6F5B00DEF
:10036B00BD08C774352AF8E6F5A07F027E0012059A
:10037B00ACE4F5A0F5900ABA08AE0534809909E90A
:09038B00640C7090052802030EB9
:010394002246
:1005860012061A1205D91206291205D912042112C9
:1005960005D91205E71205D91205281205D9120444
:0605A600AF1205D980DA56
:0300000002039563
:0C039500787FE4F6D8FD7581480203DC97
:1003A100020586E493A3F8E493A34003F68001F2E7
:1003B10008DFF48029E493A3F85407240CC8C3335D
:1003C100C4540F4420C8834004F456800146F6DF2C
:1003D100E4800B0102040810204080900468E47E50
:1003E100019360BCA3FF543F30E509541FFEE49321
:1003F100A360010ECF54C025E060A840B8E493A3E8
:10040100FAE493A3F8E493A3C8C582C8CAC583CA12
:10041100F0A3C8C582C8CAC583CADFE9DEE780BECA
:0104AE00004D
:00000001FF
