:1000000010308A0000280000FF00030E8301A100C9
:100010000A08A0008A010408A2007708A300780853
:10002000A4007908A5007A08A6007B08A70083131E
:1000300083128B1E1D280B1936288C308400001C5F
:1000400023280C183928220884002308F7002408E4
:10005000F8002508F9002608FA002708FB00200808
:100060008A00210E8300FF0E7F0E09008A110A12FA
:10007000AF2E8A150A121F29FB0000307A078A006A
:100080007B08453E03188A0A82001134123410346A
:100090001B3412341334143415341734183419340F
:1000A0001A341B341D341B341C341D341E340134EB
:1000B0000234043405340634073408340A3409346D
:1000C0000B340B340C340D340E3410341034123421
:1000D00012341434153414341534163417341834D7
:1000E00019341A341B341C341D34013402340134E5
:1000F0000234033404340534063408340834093433
:100100000A340B340D340B340D340D340F341034E9
:10011000113413341334143414341634173417349C
:10012000183419341A341B341D34013401340234A8
:1001300003340434053404340534063407340834F5
:100140000A340B340C340D340E340F3410340E34A6
:100150001034103412341234143416341634183463
:1001600019341A341B3419341B341B341C341D3419
:1001700001340334033405340634073408340834B6
:10018000093409340A340B340C340E340F3410346F
:100190001134133414341234143414341534163422
:1001A0001734193419341B341B341D3401341D34F5
:1001B000013401340334033404340634063408347F
:1001C00008340A340B3414340B340C340E340E342B
:1001D0000F341134113412341334143416341534EA
:1001E0001734173419341A341B341D341D340134B8
:1001F0000134023404340234043404340634073441
:1002000008340A340A340C340C340D340E340D34F2
:100210000E340F34103411341334143415341734AD
:100220001734183419341834193419341B341B3466
:100230001D340134023404340434053407340634E4
:1002400007340734093409340B340D340D340F34BA
:10025000103411341234113412341234143414346E
:1002600016341734183419341A341C341D341C3421
:100270001D341D3401340134033404340534063490
:1002800007340034003400340034003400340034C7
:1002900000340034003400340034FB0001307A07AD
:1002A0008A007B08563E03188A0A82000B340C34FD
:1002B000013402340334043405340634073408347A
:1002C00009340A340B340C3401340234033404345A
:1002D00006340734083409340A340B340C3401343E
:1002E0000234033404340434053406340734083447
:1002F00009340A340B340C3401340234033404342A
:10030000053406340734083409340A340C34013413
:100310000234033404340534063407340834093411
:1003200009340A340B340C340134023403340434F9
:10033000053406340734083409340A340B340C34D9
:1003400001340234033404340534063408340934E7
:100350000A340B340C3401340234033404340534CD
:10036000063406340734083409340A340B340C34A8
:1003700001340234033404340534063407340834B9
:1003800009340A340B340C34013402340334043499
:1003900005340734083409340A340B340C3401347E
:1003A0000234033404340434053406340734083486
:1003B00009340A340B340C34013402340334043469
:1003C000053406340734083409340A340B34013454
:1003D0000134033404340534063407340834093452
:1003E0000A340B340C340134023402340334043440
:1003F000053406340734083409340A340B340C3419
:100400000134023403340434053406340734083428
:100410000A340B340C34013402340334043405340C
:10042000063406340734083409340A340B340C34E7
:1004300001340234033404340534063407340834F8
:1004400009340A340B340C340134023403340434D8
:1004500005340634083409340A340B340C340134BE
:1004600002340334043405340534063407340834C4
:1004700009340A340B340C340134023403340434A8
:10048000053406340734083409340A340B340C3488
:100490000134023403340534063407340834093493
:1004A0000A340B3400340034003400340034003497
:1004B000003400340034003400340034FB000230D7
:1004C0007A078A007B08673E03188A0A82000F3485
:1004D0000E34103405340E340C340C340A34083421
:1004E0000834063406340434033405340334033446
:1004F00002341F341D341B341B341934193417349F
:1005000016341634153415341334133411341034AE
:100510000F340E340D340C340A340C340A340A34DB
:1005200008340834073405340534033403341F34E5
:100530001F341F341D341D341B341B34193418343C
:100540001834163416341434133414341334123467
:10055000103410340E340D340D340C340B340A3492
:1005600008340934073407340534043403340134BF
:100570001F341D341D341C341A341C341A341A34FC
:100580001834173416341434143412341234113429
:100590001034113410340F340E340D340B340A344B
:1005A0000934073407340634053406340534053479
:1005B000033403341E341D341C341A341A341934F1
:1005C00017341834173417341534153413341134E0
:1005D00011340F340E340D340C340D340C340C340F
:1005E0000A340A3408340734063405340434033436
:1005F0001D3403341F341E341D341D341B341A348F
:10060000193418341734163414341634143413349B
:100610001234123410340F340F340D340D340B34C3
:100620000A340A34093408340634063404340334F2
:1006300003341F341F341D341C341D341C341B344C
:10064000193419341734163415341434143413345B
:1006500011341334113411340F340E340D340B347F
:100660000A340934093408340634083407340634AB
:100670000534043401341E341D341C341C341A3443
:1006800019341A3419341834173416341434133412
:100690001234103410340F3417340F340E340D3438
:1006A0000C340B340A34083408340634053404346A
:1006B000023404341F3402341E341E341D341B34FF
:1006C0001B3419341934003400340034003400343D
:1006D0000034003400340034003400340034FB00B3
:1006E00003307A078A007B08783E03188A0A820062
:1006F0000C34013402340334043405340634073432
:10070000083409340A340B340C3401340234033411
:10071000043405340734083409340A340B340C34F7
:100720000134023403340434043405340634073409
:10073000083409340A340B340C34013402340334E1
:100740000434053406340734083409340A340B34CD
:1007500001340234033404340534063407340834D5
:10076000093409340A340B340C34013402340334B0
:100770000434053406340734083409340A340B349D
:100780000C340134023403340434053406340734A1
:1007900008340A340B340C34013402340334043486
:1007A0000534063406340734083409340A340B346B
:1007B0000C34013402340334043405340634073471
:1007C000083409340A340B340C3401340234033451
:1007D000043405340634083409340A340B340C3438
:1007E0000134023403340434043405340634073449
:1007F000083409340A340B340C3401340234033421
:100800000434053406340734083409340A340B340C
:100810000C3401340234033405340634073408340C
:1008200009340A340B340C340134023402340334F6
:100830000434053406340734083409340A340B34DC
:100840000C340134023403340434053406340734E0
:10085000083409340A340C340134023403340434C7
:100860000534063406340734083409340A340B34AA
:100870000C340134023403340434053406340734B0
:10088000083409340A340B340C3401340234033490
:10089000043405340634073409340A340B340C3478
:1008A0000134023403340434053405340634073487
:1008B000083409340A340B340C3401340234033460
:1008C0000434053406340734083409340A340B344C
:1008D0000C3401340234033404340534073408344E
:1008E00009340A340B340C3400340034003400343E
:1008F0000034003400340034003400340034003458
:100900006008880008006008F8015F0203188B2C5B
:100910005F08F700972CF7010830E100DF0DF70DB5
:10092000600877020318F700F80DE10B8E2C080021
:10093000AA0A2A08C73C031CAA0101302C02EA3E7D
:100940000318922E163E952E2B0BAD2C2A08463CF2
:10095000031CAD2CE0018024922E5408093C031C9A
:10096000B42CE0018024C12C5408DF000A30E000E0
:10097000832439307807840083130008DF00E00007
:100980008024922E2B0BCB2C2A08463C031CCB2C0C
:10099000E0018024922E5408DF000A30E000832416
:1009A00039307707840083130008DF00E0008024DB
:1009B000922E2B08023C031DE42C2A08463C031C03
:1009C000E42CE0018024922E5508093C031CEB2CFA
:1009D000E0018024F82C5508DF000A30E000832471
:1009E00039307807840083130008DF00E00080249A
:1009F000922E2B08023C031D042D2A08463C031CA2
:100A0000042DE0018024922E5508DF000A30E0001A
:100A1000832439307707840083130008DF00E00067
:100A20008024922E2B08033C031D1D2D2A08463CD2
:100A3000031C1D2DE0018024922E5608DF000A3091
:100A4000E000832439307807840083130008DF0036
:100A5000E0008024922E2B08033C031D362D2A082B
:100A6000463C031C362DE0018024922E5608DF0000
:100A70000A30E000832439307707840083130008AC
:100A8000DF00E0008024922E5708093C031C4B2D08
:100A9000E0018024582D5708DF000A30E00083244D
:100AA00039307807840083130008DF00E0008024D9
:100AB000922E5708DF000A30E00083243930770790
:100AC000840083130008DF00E0008024922E580881
:100AD000093C031C6E2DE00180247B2D5808DF00AB
:100AE0000A30E0008324393078078400831300083B
:100AF000DF00E0008024922E5808DF000A30E0007A
:100B0000832439307707840083130008DF00E00076
:100B10008024922E5908DF000A30E0008324393007
:100B20007807840083130008DF00E0008024922E01
:100B30005908DF000A30E000832439307707840049
:100B400083130008DF00E0008024922E2B08043C71
:100B5000031DB12D2A08463C031CB12DE001802461
:100B6000922E5A0BB72D3930E0008024BA2D783000
:100B7000E0008024922E2B08043C031DC62D2A0879
:100B8000463C031CC62DE0018024922E5A0BCC2D2E
:100B90003730E0008024D92D5A08DF000A30E00009
:100BA000832439307707840083130008DF00E000D6
:100BB0008024922E5B08093C031CE12DE001802477
:100BC000EE2D5B08DF000A30E0008324393078071F
:100BD000840083130008DF00E0008024922E5B086D
:100BE000DF000A30E0008324393077078400831364
:100BF0000008DF00E0008024922E2B08053C031D36
:100C0000082E2A08463C031C082EE0018024922E60
:100C10005C08DF000A30E000832439307807840064
:100C200083130008DF00E0008024922E2B08053C8F
:100C3000031D212E2A08463C031C212EE00180249E
:100C4000922E5C08DF000A30E000832439307707F9
:100C5000840083130008DF00E0008024922E2B081C
:100C6000063C031D3A2E2A08463C031C3A2EE0019E
:100C70008024922E5D08DF000A30E00083243930A2
:100C80007807840083130008DF00E0008024922EA0
:100C90002B08063C031D532E2A08463C031C532EEA
:100CA000E0018024922E5D08DF000A30E0008324FA
:100CB00039307707840083130008DF00E0008024C8
:100CC000922E2B08073C031D6C2E2A08463C031C61
:100CD0006C2EE0018024922E5E08DF000A30E000D6
:100CE000832439307807840083130008DF00E00094
:100CF0008024922E2B08073C031D852E2A08463C93
:100D0000031C852EE0018024922E5E08DF000A304D
:100D1000E000832439307707840083130008DF0064
:100D2000E00080248A110A12D82E0A108A140A15AB
:100D30008207A42CC22CD92CF92C122D2B2D442D3A
:100D4000592D672D7C2D8A2D982DA62DBB2DDA2DA2
:100D5000EF2DFD2D162E2F2E482E612E7A2E73305C
:100D60008100AC0A2C08163C0318BC2E0130AC00E4
:100D7000891009100914891409100914FF30E000C2
:100D800080243108D4003208D5003308D600350855
:100D9000D7003608D8003708D9003408DA002D0803
:100DA000DB003008DC002F08DD002E08DE00982C68
:100DB0000B118A110A1223280830F8000430F700BA
:100DC000F70BE02E8711A91129088316870003303D
:100DD000F700F70BE92E8312D80D0712031CF62E2D
:100DE0002916290883168700FA2E8312291229084A
:100DF0008316870000008312A9152908831687002F
:100E00008312871D012FF80BDE2E0430F700F70B3D
:100E1000072F8711A9112908831687000000831264
:100E200029162908831687000330F700F70B162FC1
:100E30000330F700F70B1A2F8312A9152908831620
:100E400087008312871D222FF8010330F700F70B6C
:100E5000272F071A78148711A911290883168700EC
:100E600083120712291229088316870083120800AB
:100E70000830D9007708DA00291629088316870078
:100E80000330F700F70B422F8312A91529088316A8
:100E900087008312871D4A2F071A0314071E0310A9
:100EA000F80D0430F700F70B532FA911290883160A
:100EB000870083128711D90B3C2F29162908831626
:100EC00087000330F700F70B632F831207125A08CD
:100ED00003196F2F29122908831687008312000037
:100EE000A9152908831687008312871D752F0430E2
:100EF000F700F70B792F8711A911290883168700AE
:100F00000330F700F70B822F8312071229122908EA
:100F100083168700831208005908DA000310DA0CE0
:100F20007830DA055A0CF700F70C3F30F7057708F0
:100F30005A07DB0059080F395B07F800080010302A
:100F4000E200F701FA01DF0CDE0C031CAD2F600894
:100F5000F7070318FA0A6108FA07FA0CF70CF90CFC
:100F6000F80CE20BA32F0800F801F901F701FA01D0
:100F70005B08031DBE2F5A080319D82F1030DC0060
:100F80000310D80DD90DF70DFA0D5B087A02031D79
:100F9000CB2F5A087702031CD42F5A08F702031CE0
:100FA000FA035B08FA020314F80DF90DDC0BC02FED
:100FB00008008E30F7005708F8005608F900FA01CB
:100FC000F808031DED2F7908F800F9010830F70241
:100FD000F808031DED2FF701F52F0310F81BF42F70
:0C0FE000F90DF80DF703ED2FF8130800D1
:1010000056081E3C031CC3280A305602DD00DF01CF
:101010005D08DE00E1010C30E0008A119F278A158F
:101020007908DD007808DC00013055025C07F80023
:101030005D08FA000318FA0A78088A113C208A151C
:10104000F800D9000A305602DD00DF015D08DE003D
:10105000E1010C30E0008A119F278A157908DD0034
:101060007808DC00013055025C07F8005D08FA00E2
:101070000318FA0A78088A115E228A15F800DA0045
:1010800054085A02D700D708031D69285A08540289
:10109000013EB5000A305602DD00DF015D08DE00CA
:1010A000E1010C30E0008A119F278A157908DD00E4
:1010B0007808DC00013055025C07F8005D08FA0092
:1010C0000318FA0A78088A116F238A15F800B60007
:1010D000B12857081F3C03188F285A085402013EB4
:1010E000B5000A305602DD00DF015D08DE00E101D7
:1010F0000C30E0008A119F278A157908DD007808F6
:10110000DC0055085C07F8005D08FA000318FA0ACD
:1011100078088A114D218A15F800B600B1285908BF
:101120005407FF3EB5000A305602DD00DF015D08BE
:10113000DE00E1010C30E0008A119F278A15790852
:10114000DD007808DC00013055025C07F8005D081E
:10115000FA000318FA0A78088A114D218A15F80056
:10116000B6003608DB005B085502D8005808643C1E
:101170000318C128580FBD28C12801305602B700F6
:10118000C3285608B70008008E30F7005608F7024B
:101190005708F9005808F800F917F7080319DB2871
:1011A0000310F908031DD728F8080319DB28F90CE8
:1011B000F80CF70BD028D71FE228F809F909F80A2C
:1011C0000319F90A08001F151F19E42883161E08C1
:1011D0008312D4001E08D5005508DF005408DE0035
:1011E0000130E100F430E0008A119F278A15790868
:1011F000D7007808D6007908D9007808D8000330DD
:10120000DB00FF30DA008A11B4278A157908FA006A
:101210007808D6007908D7008A11D9278A157A0864
:10122000D9007908D8007808D7007708D600C420FC
:101230007908D5007808D4005408F80008008E0119
:101240000B308F00DB308E00B80A3808093C0318D9
:10125000882AB80129162908831687000430F70068
:10126000F70B30298312A91529088316870003304C
:10127000F700F70B39298312071229122908831660
:1012800087000430F700F70B432983128711A91157
:10129000290883168700D0308312D8008A11DC26F3
:1012A0008A15D8018A11DC268A1529162908831681
:1012B00087000430F700F70B5B298312A915290872
:1012C000831687000330F700F70B64298312871D0C
:1012D0006729071229122908831687000430F700AE
:1012E000F70B702983128711A9112908831687002B
:1012F000D1308312D8008A11DC268A150130F7001C
:101300008A1138278A1578087F39D400D9008A11C4
:101310008C278A157808AE000130F7008A1138272B
:101320008A1578087F39D400D9008A118C278A154C
:101330007808AF00F7018A1138278A1578083F39F5
:10134000D400D9008A118C278A157808B000291298
:1013500029088316870000008312A915290883161F
:1013600087008312871DB2290430F700F70BB629D6
:10137000B929000029162908831687000430F700D0
:10138000F70BC0298312B008031D7B2AAF08031D89
:101390007B2A2E080A3C031C7B2A2916290883165F
:1013A00087000430F700F70BD3298312A915290809
:1013B000831687000330F700F70BDC29831207122E
:1013C00029122908831687000430F700F70BE62955
:1013D00083128711A911290883168700D030831240
:1013E000D8008A11DC268A150330D8008A11DC2641
:1013F0008A1529162908831687000430F700F70B91
:10140000FF298312A9152908831687000330F700E6
:10141000F70B082A8312871D0B2A071229122908A5
:10142000831687000430F700F70B142A8312871104
:10143000A911290883168700D1308312D8008A1198
:10144000DC268A150130F7008A1138278A157808BA
:101450007F39D400D9008A118C278A157808B40006
:101460000130F7008A1138278A1578083F39D400EF
:10147000D9008A118C278A157808B1000130F7004D
:101480008A1138278A1578081F39D400D9008A11A3
:101490008C278A157808B200F7018A1138278A1537
:1014A0007808D400D9008A118C278A157808B300EF
:1014B000291229088316870000008312A91529081C
:1014C000831687008312871D632A0430F700F70B09
:1014D000672A6A2A00002916290883168700043023
:1014E000F700F70B712A83123108D4003208D500B7
:1014F0003308D60000202E08DF000A30E0008A11F1
:1015000083248A15F708031D882AE3207808AD0094
:101510000C108A110A1223280130831685003F30EF
:101520008600880189011F109F141F159F151F1326
:1015300083121F139F1783169F1783121F1483167E
:101540000108C03905388100B53083129000C030E1
:101550008B048A110A16572846308400831300082A
:101560000319C32A0630F800BF30F7006400F70BF8
:10157000B62AF80BB42A7A30F700F70BBD2AC02A36
:101580006400800BB22A0800C301C401C501033006
:10159000C305C408031D4316C508031DC317291638
:1015A0002908831687000430F700F70BD52A831229
:1015B000A9152908831687000330F700F70BDE2AE8
:1015C0008312071229122908831687000430F700B6
:1015D000F70BE82A83128711A911290883168700BF
:1015E0008312A8018B1BA8178B13D030D8008A1147
:1015F000DC268A15A81B8B17A8018B1BA8178B1339
:101600000730D8008A11DC268A15A81B8B17A80181
:101610008B1BA8178B134308D8008A11DC268A1568
:10162000A81B8B1729122908831687000000831234
:10163000A9152908831687008312871D1D2B0430E6
:10164000F700F70B212B242B0000291629088316FD
:1016500087000430F700F70B2B2B64308312C60091
:10166000AC2229162908831687000430F700F70BEF
:10167000372B8312A9152908831687000330F7003A
:10168000F70B402B831207122912290883168700B3
:101690000430F700F70B4A2B83128711A911290890
:1016A00083168700D0308312D8008A11DC268A1571
:1016B0000330D8008A11DC268A15291629088316DA
:1016C00087000430F700F70B632B8312A915290854
:1016D000831687000330F700F70B6C2B8312871DEE
:1016E0006F2B071229122908831687000430F70090
:1016F000F70B782B83128711A9112908831687000D
:10170000D1308312D8008A11DC268A150130F70007
:101710008A1138278A1578087F39D400D9008A11B0
:101720008C278A157808B4000130F7008A11382711
:101730008A1578083F39D400D9008A118C278A1578
:101740007808B1000130F7008A1138278A15780827
:101750001F39D400D9008A118C278A157808B20065
:10176000F7018A1138278A157808D400D9008A1120
:101770008C278A157808B300291229088316870058
:1017800000008312A9152908831687008312871D7C
:10179000C72B0430F700F70BCB2BCE2B00002916FC
:1017A0002908831687000430F700F70BD52B831226
:1017B00029162908831687000430F700F70BDE2B63
:1017C0008312A9152908831687000330F700F70B49
:1017D000E72B831207122912290883168700043089
:1017E000F700F70BF12B83128711A9112908831633
:1017F0008700D0308312D8008A11DC268A15D801E0
:101800008A11DC268A1529162908831687000430D8
:10181000F700F70B092C8312A915290883168700F6
:101820000330F700F70B122C8312871D152C0712BB
:1018300029122908831687000430F700F70B1E2CA5
:1018400083128711A911290883168700D1308312CA
:10185000D8008A11DC268A150130F7008A11382752
:101860008A1578087F39D400D9008A118C278A1507
:101870007808AE000130F7008A1138278A157808F9
:101880007F39D400D9008A118C278A157808AF00D7
:10189000F7018A1138278A1578083F39D400D90012
:1018A0008A118C278A157808B00029122908831616
:1018B000870000008312A915290883168700831268
:1018C000871D602C0430F700F70B642C672C000098
:1018D00029162908831687000430F700F70B6E2CB1
:1018E0008312A8018B1BA8178B133108D400320870
:1018F000D5003308D6000020A81B8B17A8018B1B2E
:10190000A8178B13E320A81B8B177808AD00C830ED
:10191000C600AC228B1683160C14C03083128B04C5
:101920008A110A165C288619A72C2B08043C031C74
:10193000A72C0230C5009630C600AC22C50B9B2CEC
:10194000C30A430844020318A72C0130C3008619B8
:10195000B92C2B08043C0318B92C0230C500963072
:10196000C600AC22C50BAF2CC30A43084402031CBB
:10197000C301061ACA2C2B08043C031CCA2C0230D3
:10198000C5009630C600AC22C50BC12C4308013CF3
:10199000031CC303061AD82C2B08043C0318D82CAC
:1019A0000230C5009630C600AC22C50BD22CC30352
:1019B0000619DD2C061DDA2CAB01A8018B1BA8171C
:1019C0008B133108D4003208D5003308D60000202C
:1019D000A81B8B174308F80008004708C800C90176
:1019E0004808093C0318F92C0A30C8021030C9070E
:1019F000FC2C4808C907FD2CF02C4908F800080009
:101A000029162908831687000430F700F70B062DE6
:101A10008312A9152908831687000330F700F70BF6
:101A20000F2D83120712291229088316870004300C
:101A3000F700F70B192D83128711A91129088316B6
:101A400087008312A8018B1BA8178B13D030D800F6
:101A50008A11DC268A15A81B8B17A8018B1BA817D7
:101A60008B130330D8008A11DC268A15A81B8B172C
:101A70004608C700ED247808C700A8018B1BA817EB
:101A80008B137808D8008A11DC268A15A81B8B17BF
:101A90004308C700ED247808C700A8018B1BA817CE
:101AA0008B137808D8008A11DC268A15A81B8B179F
:101AB0004408C700ED247808C700A8018B1BA817AD
:101AC0008B137808D8008A11DC268A15A81B8B177F
:101AD0004508C700ED247808C700A8018B1BA8178C
:101AE0008B137808D8008A11DC268A15A81B8B175F
:101AF000291229088316870000008312A9152908D6
:101B0000831687008312871D832D0430F700F70B9F
:101B1000872D8A2D00002916290883168700043096
:101B2000F700F70B912D83120800C5133F30C30552
:101B300029162908831687000430F700F70B9E2D1D
:101B40008312A9152908831687000330F700F70BC5
:101B5000A72D831207122912290883168700043043
:101B6000F700F70BB12D83128711A91129088316ED
:101B700087008312A8018B1BA8178B13D030D800C5
:101B80008A11DC268A15A81B8B17A8018B1BA817A6
:101B90008B13D8018A11DC268A15A81B8B174508E0
:101BA000C700ED247808C600A8018B1BA8178B136B
:101BB0007808D8008A11DC268A15A81B8B174408E0
:101BC000C700ED247808C600A8018B1BA8178B134B
:101BD0007808D8008A11DC268A15A81B8B174308C1
:101BE000C700ED247808C600A8018B1BA8178B132B
:101BF0007808D8008A11DC268A15A81B8B172912B1
:101C000029088316870000008312A9152908831666
:101C100087008312871D0A2E0430F700F70B0E2E63
:101C2000112E000029162908831687000430F700BA
:101C3000F70B182E831208000130AB00AB08031914
:101C4000272F0618292E061C232E2B08093C0318C3
:101C5000AB0A8618312E861C2B2E2B08013C031C48
:101C6000AB030619372E061D332EAB01272F2B0889
:101C7000013A0319512E033A03196E2E013A031942
:101C80008B2E073A0319A82E013A0319C52E033AE1
:101C90000319E32E013A0319012FF83A0319202FF3
:101CA000262F3108C3001F30C40093247808B100E8
:101CB00006186D2E061C5A2E3108C3003208C400C7
:101CC0003308C5003408C60000250230C300FA30CE
:101CD000C600AC22C30B672EAB0A262F3208C30006
:101CE0000C30C40093247808B20006188A2E061C13
:101CF000772E3108C3003208C4003308C500340809
:101D0000C60000250230C300FA30C600AC22C30B67
:101D1000842EAB0A262F3308C3001E30C400932440
:101D20007808B3000618A72E061C942E3108C300AD
:101D30003208C4003308C5003408C600002502304C
:101D4000C300FA30C600AC22C30BA12EAB0A262F6B
:101D50003408C3000730C40093247808B400061880
:101D6000C42E061CB12E3108C3003208C40033084B
:101D7000C5003408C60000250230C300FA30C60092
:101D8000AC22C30BBE2EAB0A262F83160C10831277
:101D90003008C3001830C40093247808B000061837
:101DA000E22E061CD12E3008C3002F08C4002E08D6
:101DB000C50095250230C300FA30C600AC22C30B23
:101DC000DC2EAB0A262F83160C1083122F08C300BB
:101DD0003B30C40093247808AF000618002F061C7F
:101DE000EF2E3008C3002F08C4002E08C50095252B
:101DF0000230C300FA30C600AC22C30BFA2EAB0A85
:101E0000262F83160C1083122E08C3003B30C4000B
:101E100093247808AE0006181F2F061C0D2F3008DB
:101E2000C3002F08C4002E08C50095250230C3004A
:101E3000FA30C600AC22C30B182FFF30AB00262FA0
:101E400083160C140A308312B800AB011E2E29161B
:101E50002908831687000430F700F70B2D2F831213
:101E6000A9152908831687000330F700F70B362FD2
:101E70008312071229122908831687000430F700FD
:101E8000F70B402F83128711A911290883168700A9
:101E9000D0308312D8008A11DC268A150330D8008E
:101EA0008A11DC268A152916290883168700043032
:101EB000F700F70B592F8312A915290883168700FD
:101EC0000330F700F70B622F8312871D652F07126F
:101ED00029122908831687000430F700F70B6E2FAC
:101EE00083128711A911290883168700D130831224
:101EF000D8008A11DC268A150130F7008A113827AC
:101F00008A1578087F39D400D9008A118C278A1560
:101F10007808B4000130F7008A1138278A1578084C
:101F20003F39D400D9008A118C278A157808B1006E
:101F30000130F7008A1138278A1578081F39D40034
:101F4000D9008A118C278A157808B200F7018A1106
:101F500038278A157808D400D9008A118C278A1569
:101F60007808B3002912290883168700000083121D
:101F7000A9152908831687008312871DBD2F0430F9
:101F8000F700F70BC12FC42F00002916290883166C
:101F900087000430F700F70BCB2F8312A8018B1BAF
:101FA000A8178B133108D4003208D5003308D600A7
:0C1FB0000020A81B8B178A110A16662857
:1020000003081F3983005730F70020308400831302
:102010008001840AF70B0828F801F901FA01FB0195
:10202000FC01FD01FE015030F700A0308400831355
:102030008001840AF70B18286030F7001030840004
:1020400083178001840AF70B212883136030F7007F
:102050009030840083178001840AF70B2B288313A8
:10206000A001FF30A900AA01AB01AC01B8018316A1
:102070001F149F141F159F1107309C0083133F30BE
:102080008312B9000630BA005B30BB004F30BC0091
:102090006630BD006D30BE007D30BF000730C0002F
:1020A0007F30C1006F30C2000A128A158C2A0A16CE
:1020B0008A110A128A15C42A0A168A11640006189F
:1020C0006828061C61280A128A151C2E0A168A1115
:0420D0005E28630023
:02400E00323F3F
:00000001FF
;PIC16F877A
;CRC=6835  CREATED="20-Jan-15 09:41"
