:1006B500FEFDFBF7EFDFBF7FFEFCF8F0E0C080003A
:1006C500F8F1E3C78F1FF0E1C3870FE0C18307FF90
:1006D5007F3F1F0F0703010103070F1F3F7FFFFF29
:1006E500FEFCF8F0E0C08080C0E0F0F8FCFEFFFE04
:1006F500FDFBF7EFDFBF7FBFDFEFF7FBFD7FBFDF61
:10070500EFF7FBFDFEFDFBF7EFDFBF7F01020408FE
:100715001020408040201008040201020408102027
:100725004001020408102040808080808080808005
:1007350080808080804020100804020101010102B0
:100745000408102040801008040201010101010184
:10075500020408102040808080808080402010089E
:1007650004020101010101800000000000000000F9
:100775000080402010080402010000000080C02015
:100785001008040201000000000000010204081026
:10079500204080FEFDFBF7EFDFBF7F01020408105C
:1007A500204080FEFDFBF7EFDFBF7F804020100873
:1007B50004020166FFFFDBDBC3C3001F33331F0FDA
:1007C5001B33007E181818181818006666666666CA
:1007D500663C008040201008040201FEFDFBF7EF97
:1007E500DFBF7F66FFFFDBDBC3C3001F33331F0F94
:1007F5001B33007E1818181818180066666666669A
:10080500663C006666667E666666003F03031F03F8
:10081500033F000303030303033F003C666666666C
:10082500663C003C18181818183C003C6666667E45
:1008350066660080402010080402013C4281F9F9F7
:0B08450081423C3C42F10909F1423CB9
:1012FD00EA93F590E50A9007E093F5B09007D8EAE8
:07130D0093F5A07F057E00AF
:10131400E4FDFCC3ED9FEE6480F8EC648098500D0E
:0D132400E4FB0BBB7DFC0DBD00010C80E661
:011331002299
:100C140078087C007D007BFF7A0679B57E007F1F13
:100C2400120BC8E4FA74082AF8E6F4F5B07590FFDC
:100C340075A0FF7FC87E001213140ABA08E7E4FA0D
:100C440074082AF8E6F4F590E4F5B075A0FF7FC8BF
:100C5400FE1213140ABA08E8E4FA74082AF8E6F44F
:100C6400F5A0E4F5B07590FF7FC8FE1213140ABA1C
:100C740008E875B0FFE4F590F5A07FF47E01121347
:100C840014E4F5B07590FF75A0FF7F9012131475EE
:100C9400B0FFE4F590F5A0121314E4F5B07590FFDD
:100CA40075A0FF1213147A0874082AF8E6F5B07FC9
:100CB400F47E011213140ABA10EEE4F97A0FEAC3AF
:100CC400940A501774082AF8E6FFF4F5B08FA08F41
:100CD400907F2C7E011213140A80E309B902DDE42B
:100CE400F97A1574082AF8E6FFF4F5B08FA08F900E
:100CF4007F2C7E011213140ABA1BE809B903E2E43B
:100D0400F97A1A74082AF8E6FFF4F5B08FA08F90E8
:0F0D14007F2C7E011213140ABA1FE809B904E2FA
:010D230022AD
:1009BD00E4F5B07590FF75A0017FFAFE1213147562
:1009CD00A00312131475A00612131475A00C1213A4
:1009DD001475A01812131475A03012131475A0609D
:1009ED0012131475A0C012131475A0801213147570
:1009FD00A0C012131475A06012131475A030121339
:100A0D001475A01812131475A00C12131475A006EA
:100A1D0012131475A00312131475A001121314757B
:100A2D00A0FF7590FF75B0FE12131475B0FC121374
:100A3D001475B0F912131475B0F312131475B0E7E1
:100A4D0012131475B0CF12131475B09F12131475C1
:100A5D00B03F12131475B07F12131475B03F1213FB
:100A6D001475B09F12131475B0CF12131475B0E72F
:100A7D0012131475B0F312131475B0F91213147513
:100A8D00B0FC12131475B0FE12131475A0FFE4F52B
:100A9D00B07590C0121314759060121314759030C8
:100AAD0012131475901812131475900C12131475EB
:100ABD0090061213147590031213147590011213EE
:100ACD001475900312131475900612131475900C6F
:100ADD001213147590181213147590301213147597
:0B0AED0090601213147590C0021314E7
:1004900078087C007D007BFF7A0679D47E007F207F
:1004A000120BC8E4FA74082AF8E6FFF5A0F4F5B0D8
:1004B0008F907FC87E001213140ABA08E8E4F5A0F2
:1004C000F590F5B07A0874082AF8E6FFF5A0F4F57F
:1004D000B08F907FC87E001213140ABA10E87A1009
:1004E00074082AF8E6FFF5A0F4F5B08F907FC87E77
:1004F000001213140ABA18E87A1874082AF8E6FFEA
:10050000F5A0F4F5B08F907FC87E001213140ABADC
:1005100020E8E4FA74182AF8E6F5A074082AF8E648
:10052000FFF4F5B08F907FC87E001213140ABA084A
:10053000E37A0874182AF8E6F5A074082AF8E6FFAA
:10054000F4F5B08F907FC87E001213140ABA10E33E
:10055000E4FA74082AF8E6F5A074182AF8E6FFF41D
:10056000F5B08F907FC87E001213140ABA08E37AA0
:100570000874082AF8E6F5A074182AF8E6FFF4F5DE
:10058000B08F907F2C7E011213140ABA10E3E4FAA4
:1005900074082AF8E6FFF5A074182AF8E6F4F5B016
:1005A0008F907FC87E001213140ABA08E37A087489
:1005B000082AF8E6FFF5A074182AF8E6F4F5B08FDB
:1005C000907FC87E001213140ABA10E3E4FA74187C
:1005D0002AF8E6FFF5A074082AF8E6F4F5B08F9043
:1005E0007FC87E001213140ABA08E37A0874182A26
:1005F000F8E6FFF5A074082AF8E6F4F5B08F907FCE
:10060000C87E001213140ABA10E3E4FA74182AF828
:10061000E6F5A0F4F5B074082AF8E6F5907FC87EF8
:10062000001213140ABA08E47A0874182AF8E6F5D6
:10063000A0F4F5B074082AF8E6F5907FC87E0012A1
:1006400013140ABA10E4E4FA74082AF8E6F5A0F4E0
:10065000F5B074182AF8E6F5907FC87E00121314DE
:100660000ABA08E4E4FA74102AF8E6F5A0F4F5B042
:1006700074202AF8E6F5907FC87E001213140ABA97
:1006800008E475A07E75907E75B0817FF47E0112BE
:10069000131475A03C75903C75B0C312131475A06B
:1006A0001875901875B0E7121314E4F5A0F590755D
:0506B000B0FF0213146D
:1012320078087C007D007BFF7A0679F47E007F1DB2
:10124200120BC87590FFE4F5B075A0017F2C7E01EA
:1012520012131475A00312131475A0071213147538
:10126200A00F12131475A01F12131475A03F1213AE
:101272001475A07F12131475A0FF121314E4F9E47D
:10128200FA74082AF8E6F5A0F59074162AF8E6F43E
:10129200F5B07F2C7E011213140ABA0EE409B905C7
:0112A200DE6D
:0112A3002228
:061424002508F8E6F5A022
:04142A007590012296
:06142E002508F8E6F5A018
:04143400759002228B
:061438002508F8E6F5A00E
:04143E00759004227F
:061442002508F8E6F5A004
:041448007590082271
:06144C002508F8E6F5A0FA
:04145200759010225F
:061456002508F8E6F5A0F0
:04145C007590202245
:061460002508F8E6F5A0E6
:04146600759040221B
:06146A002508F8E6F5A0DC
:0414700075908022D1
:10085000780A7C007D007BFF7A0779117E007F1586
:10086000120BC8781F7C007D007BFF7A0779267EFB
:10087000007F10120BC8782F7C007D007BFF7A0769
:1008800079367E007F15120BC8E4FA750807E4F587
:1008900009E4F5B0740A1214247F027E00121314C6
:1008A000740912142E12131474081214381213142B
:1008B0007407121442121314740612144C121314F7
:1008C00074051214561213147404121460121314C3
:1008D000740312146A1213140509E509C3940A403B
:1008E000B00508E508C3941540A40AEA640F709B9C
:1008F000750807E4F509E4F5B0741F1214247F03AA
:100900007E00121314741E12142E121314741D126E
:100910001438121314741C121442121314741B1280
:10092000144C121314741A1214561213147419124C
:100930001460121314741812146A1213140509E5C2
:1009400009C3940F40B00508E508C3941040A4E41F
:10095000FA750804E4F509E4F5B0742F1214427F27
:10096000027E00121314121452121314742E121455
:100970003812131412145C121314742D12142E1244
:100980001314121466121314742C12142412131458
:100990001214701213140509E509C3940F40B80529
:1009A00008E508C3941540AC0AEA640A70A3E4F5AC
:0D09B000A0F59075B0FF7FF47E01021314D6
:1013320075B07E7590817F037E0012131475B07EA6
:071342007590811F021314D6
:1013490075B0BD7590817F037E0012131475B07E50
:071359007590421F021314FE
:1013600075B0DB7590817F037E0012131475B07E1B
:071370007590241F02131405
:1013770075B0BD7590427F037E0012131475B0BD22
:071387007590421F021314D0
:10138E0075B0E77590817F037E0012131475B07EE1
:07139E007590181F021314E3
:1013A50075B0DB7590427F037E0012131475B0BDD6
:0713B5007590241F021314C0
:1013BC0075B0E77590427F037E0012131475B0BDB3
:0713CC007590181F021314B5
:1013D30075B0DB7590247F037E0012131475B0DBA8
:0713E3007590241F02131492
:1013EA0075B0E77590247F037E0012131475B0DB85
:0713FA007590181F02131487
:1014010075B0E77590187F037E0012131475B0E76D
:071411007590181F0213146F
:1011910078087C007D007BFF7A07794B7E007F21F8
:1011A100120BC8E4F5297A0AE4F974082AF8E6F57D
:1011B100A012133274072AF8E6F5A0121349740637
:1011C1002AF8E6F5A012136074052AF8E6F5A012D4
:1011D100137774042AF8E6F5A012138E74032AF823
:1011E100E6F5A01213A574022AF8E6F5A01213BCC5
:1011F10074012AF8E6F5A01213D374002AF8E6F573
:10120100A01213EA74FF2AF8E6F5A012140174FE85
:101211002AF8E6F5A012140109E96404708C0AEABF
:10122100642170840529E529C3940A50030211A79A
:01123100229A
:1010E70078087C007D007BFF7A07796C7E007F168D
:1010F700120BC8E4F51E7A10E4F974082AF8E6F52D
:10110700A075908875B0DE7F0A7E001213147407ED
:101117002AF8E6F5A075901275B0EE12131474064E
:101127002AF8E6F5A075904275B03B1213147404C3
:101137002AF8E6F5A075901475B0AB121314740273
:101147002AF8E6F5A075902175B0DD121314740026
:101157002AF8E6F5A075901275B0DD12131474FE27
:101167002AF8E6F5A075908275B0EB12131409E919
:10117700640370860AEA641660030210FF051EE521
:091187001EC3940A50030210FD7E
:01119000223C
:020003008F0864
:1000050078097C007D007BFF7A0779827E007F0E70
:10001500120BC8E4F9E9C39508400302024F75B015
:10002500EF75901075A0037FC87E0012131475A09C
:100035000612131475A00C12131475A018121314BC
:1000450075A03012131475A06012131475B0CF7516
:10005500903075A0E07F9612131475B0C77590386F
:1000650075A0E012131490000075A08075B0977507
:1000750090407F037E0012131475B0F37590201223
:10008500131475B0AB75901012131475B0AF75904D
:100095000812131475B0D375900412131475A0408B
:1000A50075B0C775904012131475B0D575902012B0
:1000B500131475B0B575901012131475B0CB7590F7
:1000C5000812131475B0EB75900412131475A0087B
:1000D50075B0CF75902012131475B0D775901012A6
:1000E500131475B0EF759008121314A3E582640D0F
:1000F5004583600302006EE4F583F58275A0807583
:10010500B0DB7590807F037E0012131475B099756E
:10011500904012131475B0EB75902012131475B03E
:100125008D75901012131475B0697590041213141F
:1001350075B02775900212131475A04075B09975A6
:10014500904012131475B01B75902012131475B0DE
:10015500C775901012131475B0A575900812131475
:1001650075B02775900212131475A02075B0977598
:10017500904012131475B01B75901012131475B0BE
:10018500A575900812131475B0D97590041213143F
:1001950075A00875B07B75902012131475B08D7518
:1001A500901012131475B0A5759008121314A3E5D9
:1001B50082640D458360030201017A05E4F583F548
:1001C5008274092AF8E6F5A075B0997590407F0309
:1001D5007E0012131475B07B75902012131475B040
:1001E500A575900812131475B0E9759004121314CF
:1001F50074072AF8E6F5A075B07E75908012131481
:1002050075B0DB75904012131475B0AE7590081279
:10021500131475B07775900212131474062AF8E654
:10022500F5A075B0BB75901012131475B0BB759021
:1002350020121314A3E5826406458370840AEA64D8
:0A0245000E60030201C10902001A55
:01024F00228C
:040D24008F088D099E
:100D280075B0FFE4F590F5A0F50AE50AC39509400A
:100D380003020E2FE4F9E4FAE4F5B0EA9007909381
:100D4800F59075A0FFAF087E00121314E4F590F536
:100D5800A00ABA08E3E4FAE4F5B0EAFFC374079F0F
:100D6800FFE49400FE74902FF58274073EF583E447
:100D780093F59075A0FFAF087E00121314E4F59068
:100D8800F5A00ABA08D109B904ACE4F9E4FAE4F523
:100D9800B07590FFEA90079093F5A0AF087E001217
:100DA80013140ABA08E8E4FAE4F5B07590FFEAFF0C
:100DB800C374079FFFE49400FE74902FF5827407B4
:100DC8003EF583E493F5A0AF087E001213140ABA27
:100DD80008D609B904B6E4F9E4FA7590FFEA900771
:100DE8009893F5B075A0FFAF087E001213140ABAE5
:100DF80008E8E4FA7590FFEAFFC374079FFFE494DC
:100E080000FE74982FF58274073EF583E493F5B0DD
:100E180075A0FFAF087E001213140ABA08D609B9E4
:070E280004B6050A020D32B9
:010E2F0022A0
:040E30008F088D0991
:100E3400E4F9E9C395094003020F31E4FA7590FF20
:100E4400EA9007A893F5B075A0FFAF087E001213CF
:100E5400140ABA08E8E4FAE4F5B0EA9007A093F5B6
:100E64009075A0FFAF087E00121314E4F590F5A06E
:100E74000ABA08E3E4FAE4F5B07590FFEAFFC37434
:100E8400079FFFE49400FE74A02FF58274073EF5DB
:100E940083E493F5A0AF087E001213140ABA08D6AF
:100EA400E4FAE4F5B0EAFFC374079FFFE49400FE9C
:100EB40074A02FF58274073EF583E493F59075A032
:100EC400FFAF087E00121314E4F590F5A00ABA08E7
:100ED400D1E4FA7590FFEAFFC374079FFFE494001E
:100EE400FE74A82FF58274073EF583E493F5B0757C
:100EF400A0FFAF087E001213140ABA08D6E4FAE47D
:100F0400F5B07590FFEAFFC374079FFFE49400FEF9
:100F140074A02FF58274073EF583E493F5A0AF081F
:0D0F24007E001213140ABA08D609020E3618
:010F3100229D
:040F32007D327C0090
:040F36008C088D098D
:100F3A00EF24AE604524FE6076147003020FEB24A2
:100F4A0008600302101DE4F50AC3E50A9509E508DD
:100F5A006480F8748098400302101DE4FAEA90074E
:100F6A00B893F59075B0E79007B012130CE4F5A0AA
:100F7A00F5900ABA08E7050A80CFE4F50AC3E50A3C
:100F8A009509E5086480F8748098400302101DE40E
:100F9A00FAEA9007C093F59075B0E7EA9007B012A5
:100FAA00130DE4F5A0F5900ABA08E6050A80CEE426
:100FBA00F50AC3E50A9509E5086480F87480985033
:100FCA0052E4FAEA9007C893F59075B0E7EA9007F9
:100FDA00B012130DE4F5A0F5900ABA08E6050A80E6
:100FEA00D1E4F50AC3E50A9509E5086480F8748036
:100FFA00985020E4FAEA9007D093F59075B0E7EAA2
:10100A009007B012130DE4F5A0F5900ABA08E605A8
:03101A000A80D178
:01101D0022B0
:060250007D057C007F4CDF
:040256008C088D097A
:10025A00EF120BEE045B410387450352480426491B
:10026A0003BC4C02804D03F14F02B45202E854031E
:10027A001D550000048FE4F50AE4F50BC3E50B9560
:10028A0009E5086480F87480985015E4FA9007E844
:10029A001212FDE4F5A0F5900ABA08F1050B80DC0C
:1002AA00050AE50AC3940840D022E4F50AE4F50BEE
:1002BA00C3E50B9509E5086480F87480985015E445
:1002CA00FA9007F01212FDE4F5A0F5900ABA08F1C7
:1002DA00050B80DC050AE50AC3940840D022E4F540
:1002EA000AE4F50BC3E50B9509E5086480F8748008
:1002FA00985016E4FAEA9007F81212FEE4F5A0F50F
:10030A00900ABA08F0050B80DB050AE50AC39408CF
:10031A0040CF22E4F50AE4F50BC3E50B9509E5089D
:10032A006480F87480985016E4FAEA900800121271
:10033A00FEE4F5A0F5900ABA08F0050B80DB050A81
:10034A00E50AC3940840CF22E4F50AE4F50BC3E5B5
:10035A000B9509E5086480F87480985016E4FAEA67
:10036A009008081212FEE4F5A0F5900ABA08F00502
:10037A000B80DB050AE50AC3940840CF22E4F50A9C
:10038A00E4F50BC3E50B9509E5086480F8748098D9
:10039A005016E4FAEA9008101212FEE4F5A0F5905D
:1003AA000ABA08F0050B80DB050AE50AC39408407F
:1003BA00CF22E4F50AE4F50BC3E50B9509E50864D9
:1003CA0080F87480985016E4FAEA9008181212FE1F
:1003DA00E4F5A0F5900ABA08F0050B80DB050AE5FA
:1003EA000AC3940840CF22E4F50AE4F50BC3E50BEF
:1003FA009509E5086480F87480985016E4FAEA9042
:10040A0008201212FEE4F5A0F5900ABA08F0050BCE
:10041A0080DB050AE50AC3940840CF22E4F50AE422
:10042A00F50BC3E50B9509E5086480F874809850CC
:10043A0016E4FAEA9008281212FEE4F5A0F5900AEA
:10044A00BA08F0050B80DB050AE50AC3940840CF19
:10045A0022E4F50AE4F50BC3E50B9509E508648087
:10046A00F87480985016E4FAEA9008301212FEE402
:10047A00F5A0F5900ABA08F0050B80DB050AE50A33
:05048A00C3940840CFFF
:01048F00224A
:0412A4008F088D0919
:1012A800E4F50BE50BC39509504AE4F9E4F50AE5C2
:1012B8000AC395085036E4FA75F008E9A42AF582BD
:1012C800E435F0F583E5822440F582E5833408F5BA
:1012D80083E493F59075B03FEA90083812130DE453
:1012E800F5A0F5900ABA08D0050A80C309B902BC6E
:0412F800050B80AFB3
:0112FC0022CF
:10101E007F4D120F327F031200037F52120F327F69
:10102E00031200037D327C007F54120F367F0312B1
:10103E0000037D327C007F55120F367F03120003B2
:10104E007D057F0F1212A47D057C007F481202568B
:10105E007D057C007F451202561202501202507D11
:10106E00057C007F4F1202567F031200037D057C24
:10107E00007F491202567D057C007F411202567D8B
:10108E00057C007F4D1202567D057C007F4D1202BD
:10109E00567D057C007F521202567D057C007F54E2
:1010AE001202567D057C007F551202567D057F0F7C
:1010BE001212A41210E71208501204907D037FC87A
:1010CE00120E307D027F64120D2412123212119113
:0910DE00120C141209BD02101ECF
:03000000021418CF
:0C141800787FE4F6D8FD75814302101EB9
:100AF800E709F608DFFA8046E709F208DFFA803EE0
:100B080088828C83E709F0A3DFFA8032E309F608CC
:100B1800DFFA8078E309F208DFFA807088828C8334
:100B2800E309F0A3DFFA806489828A83E0A3F608E8
:100B3800DFFA805889828A83E0A3F208DFFA804CC2
:100B480080D280FA80C680D4806980F28033801099
:100B580080A680EA809A80A880DA80E280CA803302
:100B680089828A83ECFAE493A3C8C582C8CCC5837A
:100B7800CCF0A3C8C582C8CCC583CCDFE9DEE7804A
:100B88000D89828A83E493A3F608DFF9ECFAA9F0C9
:100B9800EDFB2289828A83ECFAE0A3C8C582C8CC1F
:100BA800C583CCF0A3C8C582C8CCC583CCDFEADE38
:100BB800E880DB89828A83E493A3F208DFF980CC9A
:100BC80088F0EF60010E4E60C388F0ED2402B40493
:100BD8000050B9F582EB2402B4040050AF2323453A
:060BE8008223900B48730C
:100BEE00D083D082F8E4937012740193700DA3A396
:100BFE0093F8740193F5828883E4737402936860AA
:060C0E00EFA3A3A380DFA9
:00000001FF
