:1000000000308A00D42A00000A108A100A118207E0
:10001000533475346E3464346134793400340A10E6
:100020008A100A1182074D346F346E34643461349F
:10003000793400340A108A100A1182075434753456
:100040006534733464346134793400340A108A10AE
:100050000A1182075734653464346E34653473345E
:1000600064346134793400340A108A100A1182072A
:10007000543468347534723473346434613479348C
:1000800000340A108A100A11820746347234693427
:1000900064346134793400340A108A100A118207FA
:1000A0005334613474347534723464346134793463
:1000B00000345308F039D4008316860183125408A3
:1000C000860083160611831206150330F700F70B1E
:1000D00067288316061183120611530EF700F030BD
:1000E000F7057708F039D400831686018312540887
:1000F000860083160611831206150330F700F70BEE
:100100007F28831606118312061100340230D300B3
:1001100059202830D30059200C30D3005920063004
:10012000D30059208030D30059208A110A12E42AC2
:100130000830F80000008711A011200883168700FE
:1001400000008312D30D0712031CAC2820162008D0
:1001500083168700B0288312201220088316870098
:1001600000008312A0152008831687008312871DC4
:10017000B728F80B9A2800008711A01120088316D1
:1001800087000000831220162008831687000000D5
:1001900000008312A0152008831687008312871D94
:1001A000CF28F8010000071A78148711A011200841
:1001B00083168700831207122012200883168700F7
:1001C000831200340830D4007708D50020162008A8
:1001D0008316870000008312A0152008831687006D
:1001E0008312871DF128071A0314071E0310F80D48
:1001F0000000A01120088316870083128711D40BFA
:10020000E6282016200883168700000083120712B4
:10021000550803191029201220088316870083121D
:100220000000A0152008831687008312871D162959
:1002300000008711A0112008831687000000831298
:1002400007122012200883168700831200345308F7
:100250000F39D400530ED5000F30D5055508D700FF
:100260000A30D800F701F801570803105818F707AB
:10027000F70CF80CD818F707F70CF80C5819F70713
:10028000F70CF80CD819F707F70CF80C581AF70701
:10029000F70CF80CD81AF707F70CF80C581BF707EF
:1002A000F70CF80CD81BF707F70CF80C5408780774
:1002B000D6005608F8000034201620088316870060
:1002C00000008312A0152008831687000000831207
:1002D000071220122008831687000000831287115E
:1002E000A011200883168700D0308312D3009820F5
:1002F000D30198202016200883168700000083125F
:10030000A01520088316870000008312871D862908
:10031000071220122008831687000000831287111D
:10032000A011200883168700D1308312D3009820B3
:100330000130F700E2207808A1000130F700E22048
:100340007808A2000130F700E2207808A30001300D
:10035000F700E2207808CD000130F700E2207808AD
:10036000CE000130F700E2207808CF00F701E2204C
:100370007808D0002012200883168700000083121E
:10038000A0152008831687008312871DC529000049
:10039000C929000020162008831687000000831258
:1003A0002108D30027217808A1002208D3002721A3
:1003B0007808A2002308D30027217808A3004D085D
:1003C000D30027217808CD004E08D30027217808D4
:1003D000CE004F08D30027217808CF005008D30063
:1003E00027217808D0006130B80023080C3C03189E
:1003F000FD290C30A3027030B8008A110A12E52AD8
:100400005A08F80159020318082A5908F700142A53
:10041000F7010830DB00D90DF70D5A0877020318F1
:10042000F700F80DDB0B0B2A00345108840083130E
:100430005218831759088000840A8001D10A0319D1
:10044000D20A00342030541E3030D5005308F70053
:10045000D31F312AF709F70A7708D3002D30D500CA
:10046000D4175308D9006430DA0000227708D3008B
:1004700030307807D6005308D9000A30DA0000225D
:1004800030307707D80030307807D7005508F700AC
:10049000D41D4C2AD41F5411541A592AD41F742A1B
:1004A0005419742A7708D600D418742A7708D7000C
:1004B000742A30305602031D742A7708D600203083
:1004C000D500D41D672A5411D414D41FD410303051
:1004D0005702031D742A7708D7002030D600D41D98
:1004E000672AD410D41F5410541D792A5508D900F6
:1004F0001522D41C7E2A5608D9001522541C832AA2
:100500005708D90015225808D9001522003456087A
:10051000F039D70057080138D800831686018312B6
:100520005808860083160611831206150330F7005B
:10053000F70B982A8316061183120611560EF70040
:10054000F030F7057708F039D70057080138D800A0
:1005500083168601831258088600831606118312BB
:1005600006150330F700F70BB32A83160611831222
:10057000061100345408FA005308840083137A18D3
:10058000831780080319D32A5408FA005308D30AA2
:100590000319D40A840083137A1883170008D5003E
:1005A000D6008722BA2A0034840183131F308305C2
:1005B00083161F149F141F159F11FF308312A00074
:1005C000D101D2011F1086285C298030D300592028
:1005D000D2012430D1002308D3000130D4002222DC
:1005E0003A30D90015222208D3000130D40022224B
:1005F0003A30D90015222108D3000130D40022223C
:10060000D4012430D300BA22C030D3005920D20103
:100610003930D1004E08D3000130D40022223A30C4
:10062000D90015224F08D3000130D40022223A30DD
:10063000D90015225008D3000130D40022222030E6
:10064000D9001522D4013930D300BA22C930D300E1
:10065000592001304D02F93E03187D2B073E7F2BB8
:10066000D30153080420003803193A2BD30AD600CB
:100670008722312B7D2BD30153080F20003803191B
:10068000452BD30AD60087223C2B7D2BD301530860
:100690001A2000380319502BD30AD6008722472B83
:1006A0007D2BD30153082620003803195B2BD30A76
:1006B000D6008722522B7D2BD301530834200038DB
:1006C0000319662BD30AD60087225D2B7D2BD3011D
:1006D0005308412000380319712BD30AD600872212
:1006E000682B7D2BD30153084C20003803197C2B39
:1006F000D30AD6008722732B7D2BE42A63000A14C9
:100700008A140A118207302B3B2B462B512B5C2B72
:04071000672B722BB6
:02400E00733FFE
:00000001FF
;PIC16F877
